{
  "_format": "hh-sol-artifact-1",
  "contractName": "BuggyToken",
  "sourceName": "contracts/BuggyToken.sol",
  "abi": [
    {
      "inputs": [],
      "stateMutability": "nonpayable",
      "type": "constructor"
    },
    {
      "anonymous": false,
      "inputs": [
        {
          "indexed": true,
          "internalType": "address",
          "name": "owner",
          "type": "address"
        },
        {
          "indexed": true,
          "internalType": "address",
          "name": "spender",
          "type": "address"
        },
        {
          "indexed": false,
          "internalType": "uint256",
          "name": "value",
          "type": "uint256"
        }
      ],
      "name": "Approval",
      "type": "event"
    },
    {
      "anonymous": false,
      "inputs": [
        {
          "indexed": true,
          "internalType": "address",
          "name": "previousOwner",
          "type": "address"
        },
        {
          "indexed": true,
          "internalType": "address",
          "name": "newOwner",
          "type": "address"
        }
      ],
      "name": "OwnershipTransferred",
      "type": "event"
    },
    {
      "anonymous": false,
      "inputs": [
        {
          "indexed": true,
          "internalType": "address",
          "name": "from",
          "type": "address"
        },
        {
          "indexed": true,
          "internalType": "address",
          "name": "to",
          "type": "address"
        },
        {
          "indexed": false,
          "internalType": "uint256",
          "name": "value",
          "type": "uint256"
        }
      ],
      "name": "Transfer",
      "type": "event"
    },
    {
      "inputs": [
        {
          "internalType": "address",
          "name": "owner",
          "type": "address"
        },
        {
          "internalType": "address",
          "name": "spender",
          "type": "address"
        }
      ],
      "name": "allowance",
      "outputs": [
        {
          "internalType": "uint256",
          "name": "",
          "type": "uint256"
        }
      ],
      "stateMutability": "view",
      "type": "function"
    },
    {
      "inputs": [
        {
          "internalType": "address",
          "name": "spender",
          "type": "address"
        },
        {
          "internalType": "uint256",
          "name": "amount",
          "type": "uint256"
        }
      ],
      "name": "approve",
      "outputs": [
        {
          "internalType": "bool",
          "name": "",
          "type": "bool"
        }
      ],
      "stateMutability": "nonpayable",
      "type": "function"
    },
    {
      "inputs": [
        {
          "internalType": "address",
          "name": "account",
          "type": "address"
        }
      ],
      "name": "balanceOf",
      "outputs": [
        {
          "internalType": "uint256",
          "name": "",
          "type": "uint256"
        }
      ],
      "stateMutability": "view",
      "type": "function"
    },
    {
      "inputs": [],
      "name": "decimals",
      "outputs": [
        {
          "internalType": "uint8",
          "name": "",
          "type": "uint8"
        }
      ],
      "stateMutability": "view",
      "type": "function"
    },
    {
      "inputs": [
        {
          "internalType": "address",
          "name": "spender",
          "type": "address"
        },
        {
          "internalType": "uint256",
          "name": "subtractedValue",
          "type": "uint256"
        }
      ],
      "name": "decreaseAllowance",
      "outputs": [
        {
          "internalType": "bool",
          "name": "",
          "type": "bool"
        }
      ],
      "stateMutability": "nonpayable",
      "type": "function"
    },
    {
      "inputs": [
        {
          "internalType": "address",
          "name": "spender",
          "type": "address"
        },
        {
          "internalType": "uint256",
          "name": "addedValue",
          "type": "uint256"
        }
      ],
      "name": "increaseAllowance",
      "outputs": [
        {
          "internalType": "bool",
          "name": "",
          "type": "bool"
        }
      ],
      "stateMutability": "nonpayable",
      "type": "function"
    },
    {
      "inputs": [
        {
          "internalType": "address",
          "name": "_sponsor",
          "type": "address"
        },
        {
          "internalType": "uint256",
          "name": "_amount",
          "type": "uint256"
        }
      ],
      "name": "mintToken",
      "outputs": [],
      "stateMutability": "nonpayable",
      "type": "function"
    },
    {
      "inputs": [],
      "name": "minter",
      "outputs": [
        {
          "internalType": "address",
          "name": "",
          "type": "address"
        }
      ],
      "stateMutability": "view",
      "type": "function"
    },
    {
      "inputs": [],
      "name": "name",
      "outputs": [
        {
          "internalType": "string",
          "name": "",
          "type": "string"
        }
      ],
      "stateMutability": "view",
      "type": "function"
    },
    {
      "inputs": [],
      "name": "owner",
      "outputs": [
        {
          "internalType": "address",
          "name": "",
          "type": "address"
        }
      ],
      "stateMutability": "view",
      "type": "function"
    },
    {
      "inputs": [],
      "name": "renounceOwnership",
      "outputs": [],
      "stateMutability": "nonpayable",
      "type": "function"
    },
    {
      "inputs": [
        {
          "internalType": "address",
          "name": "_minter",
          "type": "address"
        }
      ],
      "name": "setMinter",
      "outputs": [],
      "stateMutability": "nonpayable",
      "type": "function"
    },
    {
      "inputs": [],
      "name": "symbol",
      "outputs": [
        {
          "internalType": "string",
          "name": "",
          "type": "string"
        }
      ],
      "stateMutability": "view",
      "type": "function"
    },
    {
      "inputs": [],
      "name": "totalSupply",
      "outputs": [
        {
          "internalType": "uint256",
          "name": "",
          "type": "uint256"
        }
      ],
      "stateMutability": "view",
      "type": "function"
    },
    {
      "inputs": [
        {
          "internalType": "address",
          "name": "to",
          "type": "address"
        },
        {
          "internalType": "uint256",
          "name": "amount",
          "type": "uint256"
        }
      ],
      "name": "transfer",
      "outputs": [
        {
          "internalType": "bool",
          "name": "",
          "type": "bool"
        }
      ],
      "stateMutability": "nonpayable",
      "type": "function"
    },
    {
      "inputs": [
        {
          "internalType": "address",
          "name": "from",
          "type": "address"
        },
        {
          "internalType": "address",
          "name": "to",
          "type": "address"
        },
        {
          "internalType": "uint256",
          "name": "amount",
          "type": "uint256"
        }
      ],
      "name": "transferFrom",
      "outputs": [
        {
          "internalType": "bool",
          "name": "",
          "type": "bool"
        }
      ],
      "stateMutability": "nonpayable",
      "type": "function"
    },
    {
      "inputs": [
        {
          "internalType": "address",
          "name": "newOwner",
          "type": "address"
        }
      ],
      "name": "transferOwnership",
      "outputs": [],
      "stateMutability": "nonpayable",
      "type": "function"
    }
  ],
  "bytecode": "0x60806040523480156200001157600080fd5b506040518060400160405280600581526020017f42756767790000000000000000000000000000000000000000000000000000008152506040518060400160405280600381526020017f4247590000000000000000000000000000000000000000000000000000000000815250816003908051906020019062000096929190620003db565b508060049080519060200190620000af929190620003db565b505050620000d2620000c66200018760201b60201c565b6200018f60201b60201c565b620001067fc5a21c96a6d1aded8222cc68babb6bb74639a5babd1aded42551943b9e8bc69660001b6200025560201b60201c565b6200013a7ff4b57178589a41ed6db192c073dfeaf22f7e6a55c236943a026d3902b078ea3260001b6200025560201b60201c565b6200016e7fbcff803f4eb5b389ae744bda76c1965d406eaa068c9be5607bc73a375099594c60001b6200025560201b60201c565b620001813360006200025860201b60201c565b62000548565b600033905090565b6000600560009054906101000a900473ffffffffffffffffffffffffffffffffffffffff16905081600560006101000a81548173ffffffffffffffffffffffffffffffffffffffff021916908373ffffffffffffffffffffffffffffffffffffffff1602179055508173ffffffffffffffffffffffffffffffffffffffff168173ffffffffffffffffffffffffffffffffffffffff167f8be0079c531659141344cd1fd0a4f28419497f9722a3daafe3b4186f6b6457e060405160405180910390a35050565b50565b600073ffffffffffffffffffffffffffffffffffffffff168273ffffffffffffffffffffffffffffffffffffffff161415620002cb576040517f08c379a0000000000000000000000000000000000000000000000000000000008152600401620002c2906200048b565b60405180910390fd5b620002df60008383620003d160201b60201c565b8060026000828254620002f39190620004c9565b92505081905550806000808473ffffffffffffffffffffffffffffffffffffffff1673ffffffffffffffffffffffffffffffffffffffff16815260200190815260200160002060008282546200034a9190620004c9565b925050819055508173ffffffffffffffffffffffffffffffffffffffff16600073ffffffffffffffffffffffffffffffffffffffff167fddf252ad1be2c89b69c2b068fc378daa952ba7f163c4a11628f55a4df523b3ef83604051620003b19190620004f6565b60405180910390a3620003cd60008383620003d660201b60201c565b5050565b505050565b505050565b828054620003e99062000507565b90600052602060002090601f0160209004810192826200040d576000855562000459565b82601f106200042857805160ff191683800117855562000459565b8280016001018555821562000459579182015b82811115620004585782518255916020019190600101906200043b565b5b5090506200046891906200046c565b5090565b5b80821115620004875760008160009055506001016200046d565b5090565b60208152601f60208201527f45524332303a206d696e7420746f20746865207a65726f20616464726573730060408201526000606082019050919050565b60008219821115620004eb57634e487b7160e01b600052601160045260246000fd5b828201905092915050565b600060208201905082825292915050565b60008160011c905060018216806200052057607f821691505b602082108114156200054257634e487b7160e01b600052602260045260246000fd5b50919050565b61179280620005586000396000f3fe608060405234801561001057600080fd5b506004361061010b5760003560e01c8063715018a6116100a2578063a457c2d711610071578063a457c2d7146102aa578063a9059cbb146102da578063dd62ed3e1461030a578063f2fde38b1461033a578063fca3b5aa146103565761010b565b8063715018a61461024857806379c65068146102525780638da5cb5b1461026e57806395d89b411461028c5761010b565b806323b872dd116100de57806323b872dd1461019a578063313ce567146101ca57806339509351146101e857806370a08231146102185761010b565b806306fdde0314610110578063075461721461012e578063095ea7b31461014c57806318160ddd1461017c575b600080fd5b610118610372565b60405161012591906111b6565b60405180910390f35b610136610404565b6040516101439190611210565b60405180910390f35b61016660048036038101906101619190611248565b61042a565b6040516101739190611274565b60405180910390f35b61018461044d565b6040516101919190611287565b60405180910390f35b6101b460048036038101906101af9190611298565b610457565b6040516101c19190611274565b60405180910390f35b6101d2610486565b6040516101df91906112d4565b60405180910390f35b61020260048036038101906101fd9190611248565b61048f565b60405161020f9190611274565b60405180910390f35b610232600480360381019061022d91906112e8565b6104c6565b60405161023f9190611287565b60405180910390f35b61025061050e565b005b61026c60048036038101906102679190611248565b610522565b005b6102766106f4565b6040516102839190611210565b60405180910390f35b61029461071e565b6040516102a191906111b6565b60405180910390f35b6102c460048036038101906102bf9190611248565b6107b0565b6040516102d19190611274565b60405180910390f35b6102f460048036038101906102ef9190611248565b610827565b6040516103019190611274565b60405180910390f35b610324600480360381019061031f919061130b565b61084a565b6040516103319190611287565b60405180910390f35b610354600480360381019061034f91906112e8565b6108d1565b005b610370600480360381019061036b91906112e8565b610955565b005b6060600380546103819061133e565b80601f01602080910402602001604051908101604052809291908181526020018280546103ad9061133e565b80156103fa5780601f106103cf576101008083540402835291602001916103fa565b820191906000526020600020905b8154815290600101906020018083116103dd57829003601f168201915b5050505050905090565b600660009054906101000a900473ffffffffffffffffffffffffffffffffffffffff1681565b600080610435610a25565b9050610442818585610a2d565b600191505092915050565b6000600254905090565b600080610462610a25565b905061046f858285610bf8565b61047a858585610c84565b60019150509392505050565b60006012905090565b60008061049a610a25565b90506104bb8185856104ac858961084a565b6104b6919061137d565b610a2d565b600191505092915050565b60008060008373ffffffffffffffffffffffffffffffffffffffff1673ffffffffffffffffffffffffffffffffffffffff168152602001908152602001600020549050919050565b610516610f05565b6105206000610f83565b565b61054e7fa0a47e9d6909b2c5284b6c2978ea5121d57337f6b5ab7cfaca5994da466179a860001b611049565b61057a7f1d29cfc00c2f333cc1c0b11268cc0863d9f87aa2b461dab0b1cced9312f84c4060001b611049565b6105a67f8f7b35be15e6ab5cd4be11e138f6a48ff23424bb7c83755aba603c4d6f69eb7b60001b611049565b6105d27f48e7515ca7c77f4fa36ca5086e2026a1acde41f92a89fd11fdc93cfcd144157260001b611049565b600660009054906101000a900473ffffffffffffffffffffffffffffffffffffffff1673ffffffffffffffffffffffffffffffffffffffff163373ffffffffffffffffffffffffffffffffffffffff1614610662576040517f08c379a0000000000000000000000000000000000000000000000000000000008152600401610659906113a9565b60405180910390fd5b61068e7fde441c21ebae96e3d595a3bf066d9a1ce1e7d3408080806fc13024f13fe248de60001b611049565b6106ba7fe2f2c53c7eb793d925b72e34dbb305950331a87635d5a9a50ee723b8e68aea2e60001b611049565b6106e67f12686069697bb091f3271841bce76af00fb47da496e664f9d3f5b62077e2b04d60001b611049565b6106f0828261104c565b5050565b6000600560009054906101000a900473ffffffffffffffffffffffffffffffffffffffff16905090565b60606004805461072d9061133e565b80601f01602080910402602001604051908101604052809291908181526020018280546107599061133e565b80156107a65780601f1061077b576101008083540402835291602001916107a6565b820191906000526020600020905b81548152906001019060200180831161078957829003601f168201915b5050505050905090565b6000806107bb610a25565b905060006107c9828661084a565b90508381101561080e576040517f08c379a0000000000000000000000000000000000000000000000000000000008152600401610805906113e7565b60405180910390fd5b61081b8286868403610a2d565b60019250505092915050565b600080610832610a25565b905061083f818585610c84565b600191505092915050565b6000600160008473ffffffffffffffffffffffffffffffffffffffff1673ffffffffffffffffffffffffffffffffffffffff16815260200190815260200160002060008373ffffffffffffffffffffffffffffffffffffffff1673ffffffffffffffffffffffffffffffffffffffff16815260200190815260200160002054905092915050565b6108d9610f05565b600073ffffffffffffffffffffffffffffffffffffffff168173ffffffffffffffffffffffffffffffffffffffff161415610949576040517f08c379a00000000000000000000000000000000000000000000000000000000081526004016109409061144b565b60405180910390fd5b61095281610f83565b50565b61095d610f05565b6109897ff36410d1938c47e66c56a4daeebbd88afdb14734f314e294dc40825db987b31d60001b611049565b6109b57f9ffaf1c97f8bef557146aa225cdc219fcdbb9a089de94aff675e58037e2c098760001b611049565b6109e17ffb51fe749d139153abdc43dfcd252501e9f7a1dde684e15776517a9b97409cfc60001b611049565b80600660006101000a81548173ffffffffffffffffffffffffffffffffffffffff021916908373ffffffffffffffffffffffffffffffffffffffff16021790555050565b600033905090565b600073ffffffffffffffffffffffffffffffffffffffff168373ffffffffffffffffffffffffffffffffffffffff161415610a9d576040517f08c379a0000000000000000000000000000000000000000000000000000000008152600401610a94906114af565b60405180910390fd5b600073ffffffffffffffffffffffffffffffffffffffff168273ffffffffffffffffffffffffffffffffffffffff161415610b0d576040517f08c379a0000000000000000000000000000000000000000000000000000000008152600401610b0490611513565b60405180910390fd5b80600160008573ffffffffffffffffffffffffffffffffffffffff1673ffffffffffffffffffffffffffffffffffffffff16815260200190815260200160002060008473ffffffffffffffffffffffffffffffffffffffff1673ffffffffffffffffffffffffffffffffffffffff168152602001908152602001600020819055508173ffffffffffffffffffffffffffffffffffffffff168373ffffffffffffffffffffffffffffffffffffffff167f8c5be1e5ebec7d5bd14f71427d1e84f3dd0314c0f7b2291e5b200ac8c7c3b92583604051610beb9190611287565b60405180910390a3505050565b6000610c04848461084a565b90507fffffffffffffffffffffffffffffffffffffffffffffffffffffffffffffffff8114610c7e5781811015610c70576040517f08c379a0000000000000000000000000000000000000000000000000000000008152600401610c6790611577565b60405180910390fd5b610c7d8484848403610a2d565b5b50505050565b600073ffffffffffffffffffffffffffffffffffffffff168373ffffffffffffffffffffffffffffffffffffffff161415610cf4576040517f08c379a0000000000000000000000000000000000000000000000000000000008152600401610ceb906115b5565b60405180910390fd5b600073ffffffffffffffffffffffffffffffffffffffff168273ffffffffffffffffffffffffffffffffffffffff161415610d64576040517f08c379a0000000000000000000000000000000000000000000000000000000008152600401610d5b90611619565b60405180910390fd5b610d6f8383836111ac565b60008060008573ffffffffffffffffffffffffffffffffffffffff1673ffffffffffffffffffffffffffffffffffffffff16815260200190815260200160002054905081811015610df5576040517f08c379a0000000000000000000000000000000000000000000000000000000008152600401610dec9061167d565b60405180910390fd5b8181036000808673ffffffffffffffffffffffffffffffffffffffff1673ffffffffffffffffffffffffffffffffffffffff16815260200190815260200160002081905550816000808573ffffffffffffffffffffffffffffffffffffffff1673ffffffffffffffffffffffffffffffffffffffff1681526020019081526020016000206000828254610e88919061137d565b925050819055508273ffffffffffffffffffffffffffffffffffffffff168473ffffffffffffffffffffffffffffffffffffffff167fddf252ad1be2c89b69c2b068fc378daa952ba7f163c4a11628f55a4df523b3ef84604051610eec9190611287565b60405180910390a3610eff8484846111b1565b50505050565b610f0d610a25565b73ffffffffffffffffffffffffffffffffffffffff16610f2b6106f4565b73ffffffffffffffffffffffffffffffffffffffff1614610f81576040517f08c379a0000000000000000000000000000000000000000000000000000000008152600401610f78906116e1565b60405180910390fd5b565b6000600560009054906101000a900473ffffffffffffffffffffffffffffffffffffffff16905081600560006101000a81548173ffffffffffffffffffffffffffffffffffffffff021916908373ffffffffffffffffffffffffffffffffffffffff1602179055508173ffffffffffffffffffffffffffffffffffffffff168173ffffffffffffffffffffffffffffffffffffffff167f8be0079c531659141344cd1fd0a4f28419497f9722a3daafe3b4186f6b6457e060405160405180910390a35050565b50565b600073ffffffffffffffffffffffffffffffffffffffff168273ffffffffffffffffffffffffffffffffffffffff1614156110bc576040517f08c379a00000000000000000000000000000000000000000000000000000000081526004016110b39061171e565b60405180910390fd5b6110c8600083836111ac565b80600260008282546110da919061137d565b92505081905550806000808473ffffffffffffffffffffffffffffffffffffffff1673ffffffffffffffffffffffffffffffffffffffff168152602001908152602001600020600082825461112f919061137d565b925050819055508173ffffffffffffffffffffffffffffffffffffffff16600073ffffffffffffffffffffffffffffffffffffffff167fddf252ad1be2c89b69c2b068fc378daa952ba7f163c4a11628f55a4df523b3ef836040516111949190611287565b60405180910390a36111a8600083836111b1565b5050565b505050565b505050565b600060208083528351808285015260005b818110156111e6578281870101516040828701015282810190506111c7565b818111156111f8576000604083870101525b506040601f19601f8301168501019250505092915050565b600060208201905060018060a01b038316825292915050565b60008135905060018060a01b038116811461124357600080fd5b919050565b6000806040838503121561125b57600080fd5b61126483611229565b9150602083013590509250929050565b6000602082019050821515825292915050565b600060208201905082825292915050565b6000806000606084860312156112ad57600080fd5b6112b684611229565b92506112c460208501611229565b9150604084013590509250925092565b600060208201905060ff8316825292915050565b6000602082840312156112fa57600080fd5b61130382611229565b905092915050565b6000806040838503121561131e57600080fd5b61132783611229565b915061133560208401611229565b90509250929050565b60008160011c9050600182168061135657607f821691505b6020821081141561137757634e487b7160e01b600052602260045260246000fd5b50919050565b6000821982111561139e57634e487b7160e01b600052601160045260246000fd5b828201905092915050565b60208152601b60208201527f4f6e6c79206d696e7465722063616e206d696e7420746f6b656e73000000000060408201526000606082019050919050565b60208152602560208201527f45524332303a2064656372656173656420616c6c6f77616e63652062656c6f7760408201527f207a65726f00000000000000000000000000000000000000000000000000000060608201526000608082019050919050565b60208152602660208201527f4f776e61626c653a206e6577206f776e657220697320746865207a65726f206160408201527f646472657373000000000000000000000000000000000000000000000000000060608201526000608082019050919050565b60208152602460208201527f45524332303a20617070726f76652066726f6d20746865207a65726f2061646460408201527f726573730000000000000000000000000000000000000000000000000000000060608201526000608082019050919050565b60208152602260208201527f45524332303a20617070726f766520746f20746865207a65726f20616464726560408201527f737300000000000000000000000000000000000000000000000000000000000060608201526000608082019050919050565b60208152601d60208201527f45524332303a20696e73756666696369656e7420616c6c6f77616e636500000060408201526000606082019050919050565b60208152602560208201527f45524332303a207472616e736665722066726f6d20746865207a65726f20616460408201527f647265737300000000000000000000000000000000000000000000000000000060608201526000608082019050919050565b60208152602360208201527f45524332303a207472616e7366657220746f20746865207a65726f206164647260408201527f657373000000000000000000000000000000000000000000000000000000000060608201526000608082019050919050565b60208152602660208201527f45524332303a207472616e7366657220616d6f756e742065786365656473206260408201527f616c616e6365000000000000000000000000000000000000000000000000000060608201526000608082019050919050565b602081526020808201527f4f776e61626c653a2063616c6c6572206973206e6f7420746865206f776e657260408201526000606082019050919050565b60208152601f60208201527f45524332303a206d696e7420746f20746865207a65726f2061646472657373006040820152600060608201905091905056fea264697066735822122068cb127ac702bbfc5999e65f11f2b76084b20cf9ecef166aef03c19bc3ecc25b64736f6c63430008090033",
  "linkReferences": {},
  "deployedLinkReferences": {}
}