{
    "_format": "hh-sol-artifact-1",
    "contractName": "BuggyNFT",
    "sourceName": "contracts/BuggyNFT.sol",
    "abi": [
        {
            "inputs": [
                {
                    "internalType": "string",
                    "name": "name",
                    "type": "string"
                },
                {
                    "internalType": "string",
                    "name": "symbol",
                    "type": "string"
                }
            ],
            "stateMutability": "nonpayable",
            "type": "constructor"
        },
        {
            "anonymous": false,
            "inputs": [
                {
                    "indexed": true,
                    "internalType": "address",
                    "name": "owner",
                    "type": "address"
                },
                {
                    "indexed": true,
                    "internalType": "address",
                    "name": "approved",
                    "type": "address"
                },
                {
                    "indexed": true,
                    "internalType": "uint256",
                    "name": "tokenId",
                    "type": "uint256"
                }
            ],
            "name": "Approval",
            "type": "event"
        },
        {
            "anonymous": false,
            "inputs": [
                {
                    "indexed": true,
                    "internalType": "address",
                    "name": "owner",
                    "type": "address"
                },
                {
                    "indexed": true,
                    "internalType": "address",
                    "name": "operator",
                    "type": "address"
                },
                {
                    "indexed": false,
                    "internalType": "bool",
                    "name": "approved",
                    "type": "bool"
                }
            ],
            "name": "ApprovalForAll",
            "type": "event"
        },
        {
            "anonymous": false,
            "inputs": [
                {
                    "indexed": true,
                    "internalType": "address",
                    "name": "previousOwner",
                    "type": "address"
                },
                {
                    "indexed": true,
                    "internalType": "address",
                    "name": "newOwner",
                    "type": "address"
                }
            ],
            "name": "OwnershipTransferred",
            "type": "event"
        },
        {
            "anonymous": false,
            "inputs": [
                {
                    "indexed": true,
                    "internalType": "address",
                    "name": "from",
                    "type": "address"
                },
                {
                    "indexed": true,
                    "internalType": "address",
                    "name": "to",
                    "type": "address"
                },
                {
                    "indexed": true,
                    "internalType": "uint256",
                    "name": "tokenId",
                    "type": "uint256"
                }
            ],
            "name": "Transfer",
            "type": "event"
        },
        {
            "inputs": [
                {
                    "internalType": "address",
                    "name": "to",
                    "type": "address"
                },
                {
                    "internalType": "uint256",
                    "name": "tokenId",
                    "type": "uint256"
                }
            ],
            "name": "approve",
            "outputs": [],
            "stateMutability": "nonpayable",
            "type": "function"
        },
        {
            "inputs": [
                {
                    "internalType": "address",
                    "name": "owner",
                    "type": "address"
                }
            ],
            "name": "balanceOf",
            "outputs": [
                {
                    "internalType": "uint256",
                    "name": "",
                    "type": "uint256"
                }
            ],
            "stateMutability": "view",
            "type": "function"
        },
        {
            "inputs": [],
            "name": "createdNFT",
            "outputs": [
                {
                    "internalType": "uint256",
                    "name": "",
                    "type": "uint256"
                }
            ],
            "stateMutability": "view",
            "type": "function"
        },
        {
            "inputs": [
                {
                    "internalType": "uint256",
                    "name": "tokenId",
                    "type": "uint256"
                }
            ],
            "name": "getApproved",
            "outputs": [
                {
                    "internalType": "address",
                    "name": "",
                    "type": "address"
                }
            ],
            "stateMutability": "view",
            "type": "function"
        },
        {
            "inputs": [
                {
                    "internalType": "uint256",
                    "name": "_id",
                    "type": "uint256"
                }
            ],
            "name": "getImage",
            "outputs": [
                {
                    "internalType": "string",
                    "name": "",
                    "type": "string"
                }
            ],
            "stateMutability": "view",
            "type": "function"
        },
        {
            "inputs": [
                {
                    "internalType": "address",
                    "name": "owner",
                    "type": "address"
                },
                {
                    "internalType": "address",
                    "name": "operator",
                    "type": "address"
                }
            ],
            "name": "isApprovedForAll",
            "outputs": [
                {
                    "internalType": "bool",
                    "name": "",
                    "type": "bool"
                }
            ],
            "stateMutability": "view",
            "type": "function"
        },
        {
            "inputs": [
                {
                    "internalType": "address",
                    "name": "sponsor",
                    "type": "address"
                },
                {
                    "internalType": "string",
                    "name": "signature",
                    "type": "string"
                }
            ],
            "name": "mintToken",
            "outputs": [],
            "stateMutability": "nonpayable",
            "type": "function"
        },
        {
            "inputs": [],
            "name": "minter",
            "outputs": [
                {
                    "internalType": "address",
                    "name": "",
                    "type": "address"
                }
            ],
            "stateMutability": "view",
            "type": "function"
        },
        {
            "inputs": [],
            "name": "name",
            "outputs": [
                {
                    "internalType": "string",
                    "name": "",
                    "type": "string"
                }
            ],
            "stateMutability": "view",
            "type": "function"
        },
        {
            "inputs": [],
            "name": "owner",
            "outputs": [
                {
                    "internalType": "address",
                    "name": "",
                    "type": "address"
                }
            ],
            "stateMutability": "view",
            "type": "function"
        },
        {
            "inputs": [
                {
                    "internalType": "uint256",
                    "name": "tokenId",
                    "type": "uint256"
                }
            ],
            "name": "ownerOf",
            "outputs": [
                {
                    "internalType": "address",
                    "name": "",
                    "type": "address"
                }
            ],
            "stateMutability": "view",
            "type": "function"
        },
        {
            "inputs": [
                {
                    "internalType": "uint256",
                    "name": "",
                    "type": "uint256"
                }
            ],
            "name": "ownershipRecord",
            "outputs": [
                {
                    "internalType": "string",
                    "name": "",
                    "type": "string"
                }
            ],
            "stateMutability": "view",
            "type": "function"
        },
        {
            "inputs": [],
            "name": "renounceOwnership",
            "outputs": [],
            "stateMutability": "nonpayable",
            "type": "function"
        },
        {
            "inputs": [
                {
                    "internalType": "address",
                    "name": "from",
                    "type": "address"
                },
                {
                    "internalType": "address",
                    "name": "to",
                    "type": "address"
                },
                {
                    "internalType": "uint256",
                    "name": "tokenId",
                    "type": "uint256"
                }
            ],
            "name": "safeTransferFrom",
            "outputs": [],
            "stateMutability": "nonpayable",
            "type": "function"
        },
        {
            "inputs": [
                {
                    "internalType": "address",
                    "name": "from",
                    "type": "address"
                },
                {
                    "internalType": "address",
                    "name": "to",
                    "type": "address"
                },
                {
                    "internalType": "uint256",
                    "name": "tokenId",
                    "type": "uint256"
                },
                {
                    "internalType": "bytes",
                    "name": "data",
                    "type": "bytes"
                }
            ],
            "name": "safeTransferFrom",
            "outputs": [],
            "stateMutability": "nonpayable",
            "type": "function"
        },
        {
            "inputs": [
                {
                    "internalType": "address",
                    "name": "operator",
                    "type": "address"
                },
                {
                    "internalType": "bool",
                    "name": "approved",
                    "type": "bool"
                }
            ],
            "name": "setApprovalForAll",
            "outputs": [],
            "stateMutability": "nonpayable",
            "type": "function"
        },
        {
            "inputs": [
                {
                    "internalType": "uint256",
                    "name": "_id",
                    "type": "uint256"
                },
                {
                    "internalType": "string",
                    "name": "_nftURI",
                    "type": "string"
                }
            ],
            "name": "setImage",
            "outputs": [],
            "stateMutability": "nonpayable",
            "type": "function"
        },
        {
            "inputs": [
                {
                    "internalType": "address",
                    "name": "_minter",
                    "type": "address"
                }
            ],
            "name": "setMinter",
            "outputs": [],
            "stateMutability": "nonpayable",
            "type": "function"
        },
        {
            "inputs": [
                {
                    "internalType": "bytes4",
                    "name": "interfaceId",
                    "type": "bytes4"
                }
            ],
            "name": "supportsInterface",
            "outputs": [
                {
                    "internalType": "bool",
                    "name": "",
                    "type": "bool"
                }
            ],
            "stateMutability": "view",
            "type": "function"
        },
        {
            "inputs": [],
            "name": "symbol",
            "outputs": [
                {
                    "internalType": "string",
                    "name": "",
                    "type": "string"
                }
            ],
            "stateMutability": "view",
            "type": "function"
        },
        {
            "inputs": [],
            "name": "tokenId",
            "outputs": [
                {
                    "internalType": "uint256",
                    "name": "",
                    "type": "uint256"
                }
            ],
            "stateMutability": "view",
            "type": "function"
        },
        {
            "inputs": [
                {
                    "internalType": "uint256",
                    "name": "tokenId",
                    "type": "uint256"
                }
            ],
            "name": "tokenURI",
            "outputs": [
                {
                    "internalType": "string",
                    "name": "",
                    "type": "string"
                }
            ],
            "stateMutability": "view",
            "type": "function"
        },
        {
            "inputs": [
                {
                    "internalType": "address",
                    "name": "from",
                    "type": "address"
                },
                {
                    "internalType": "address",
                    "name": "to",
                    "type": "address"
                },
                {
                    "internalType": "uint256",
                    "name": "tokenId",
                    "type": "uint256"
                }
            ],
            "name": "transferFrom",
            "outputs": [],
            "stateMutability": "nonpayable",
            "type": "function"
        },
        {
            "inputs": [
                {
                    "internalType": "address",
                    "name": "newOwner",
                    "type": "address"
                }
            ],
            "name": "transferOwnership",
            "outputs": [],
            "stateMutability": "nonpayable",
            "type": "function"
        }
    ],
    "bytecode": "0x60806040523480156200001157600080fd5b50604051620038d9380380620038d98339818101604052810190620000379190620003e5565b8181620000596200004d620000c960201b60201c565b620000d160201b60201c565b81600190805190602001906200007192919062000198565b5080600290805190602001906200008a92919062000198565b505050620000c17fc111ad8e469bb5a32cab1dcf90de0bd0322535c0ab21f1bc90cf5cf5f969174660001b6200019560201b60201c565b5050620004cf565b600033905090565b60008060009054906101000a900473ffffffffffffffffffffffffffffffffffffffff169050816000806101000a81548173ffffffffffffffffffffffffffffffffffffffff021916908373ffffffffffffffffffffffffffffffffffffffff1602179055508173ffffffffffffffffffffffffffffffffffffffff168173ffffffffffffffffffffffffffffffffffffffff167f8be0079c531659141344cd1fd0a4f28419497f9722a3daafe3b4186f6b6457e060405160405180910390a35050565b50565b828054620001a69062000499565b90600052602060002090601f016020900481019282620001ca576000855562000216565b82601f10620001e557805160ff191683800117855562000216565b8280016001018555821562000216579182015b8281111562000215578251825591602001919060010190620001f8565b5b50905062000225919062000229565b5090565b5b80821115620002445760008160009055506001016200022a565b5090565b6000604051905090565b600080fd5b600080fd5b600080fd5b600080fd5b6000601f19601f8301169050919050565b7f4e487b7100000000000000000000000000000000000000000000000000000000600052604160045260246000fd5b620002b18262000266565b810181811067ffffffffffffffff82111715620002d357620002d262000277565b5b80604052505050565b6000620002e862000248565b9050620002f68282620002a6565b919050565b600067ffffffffffffffff82111562000319576200031862000277565b5b620003248262000266565b9050602081019050919050565b60005b838110156200035157808201518184015260208101905062000334565b8381111562000361576000848401525b50505050565b60006200037e6200037884620002fb565b620002dc565b9050828152602081018484840111156200039d576200039c62000261565b5b620003aa84828562000331565b509392505050565b600082601f830112620003ca57620003c96200025c565b5b8151620003dc84826020860162000367565b91505092915050565b60008060408385031215620003ff57620003fe62000252565b5b600083015167ffffffffffffffff81111562000420576200041f62000257565b5b6200042e85828601620003b2565b925050602083015167ffffffffffffffff81111562000452576200045162000257565b5b6200046085828601620003b2565b9150509250929050565b7f4e487b7100000000000000000000000000000000000000000000000000000000600052602260045260246000fd5b60006002820490506001821680620004b257607f821691505b60208210811415620004c957620004c86200046a565b5b50919050565b6133fa80620004df6000396000f3fe608060405234801561001057600080fd5b50600436106101585760003560e01c806370a08231116100c3578063c87b56dd1161007c578063c87b56dd146103c5578063c980c626146103f5578063cbeb74e114610411578063e985e9c51461042f578063f2fde38b1461045f578063fca3b5aa1461047b57610158565b806370a0823114610317578063715018a6146103475780638da5cb5b1461035157806395d89b411461036f578063a22cb4651461038d578063b88d4fde146103a957610158565b806323b872dd1161011557806323b872dd146102335780632607aafa1461024f5780633d02d0c91461027f57806342842e0e1461029b5780635c6caf76146102b75780636352211e146102e757610158565b806301ffc9a71461015d57806306fdde031461018d57806307546172146101ab578063081812fc146101c9578063095ea7b3146101f957806317d70f7c14610215575b600080fd5b61017760048036038101906101729190612204565b610497565b604051610184919061224c565b60405180910390f35b610195610579565b6040516101a29190612300565b60405180910390f35b6101b361060b565b6040516101c09190612363565b60405180910390f35b6101e360048036038101906101de91906123b4565b610631565b6040516101f09190612363565b60405180910390f35b610213600480360381019061020e919061240d565b610677565b005b61021d61078f565b60405161022a919061245c565b60405180910390f35b61024d60048036038101906102489190612477565b610795565b005b610269600480360381019061026491906123b4565b6107f5565b6040516102769190612300565b60405180910390f35b610299600480360381019061029491906125ff565b61088b565b005b6102b560048036038101906102b09190612477565b610b4e565b005b6102d160048036038101906102cc91906123b4565b610b6e565b6040516102de9190612300565b60405180910390f35b61030160048036038101906102fc91906123b4565b610c0e565b60405161030e9190612363565b60405180910390f35b610331600480360381019061032c919061265b565b610cc0565b60405161033e919061245c565b60405180910390f35b61034f610d78565b005b610359610d8c565b6040516103669190612363565b60405180910390f35b610377610db5565b6040516103849190612300565b60405180910390f35b6103a760048036038101906103a291906126b4565b610e47565b005b6103c360048036038101906103be9190612795565b610e5d565b005b6103df60048036038101906103da91906123b4565b610ebf565b6040516103ec9190612300565b60405180910390f35b61040f600480360381019061040a9190612818565b610fd2565b005b6104196110b0565b604051610426919061245c565b60405180910390f35b61044960048036038101906104449190612874565b6110b6565b604051610456919061224c565b60405180910390f35b6104796004803603810190610474919061265b565b61114a565b005b6104956004803603810190610490919061265b565b6111ce565b005b60007f80ac58cd000000000000000000000000000000000000000000000000000000007bffffffffffffffffffffffffffffffffffffffffffffffffffffffff1916827bffffffffffffffffffffffffffffffffffffffffffffffffffffffff1916148061056257507f5b5e139f000000000000000000000000000000000000000000000000000000007bffffffffffffffffffffffffffffffffffffffffffffffffffffffff1916827bffffffffffffffffffffffffffffffffffffffffffffffffffffffff1916145b8061057257506105718261129e565b5b9050919050565b606060018054610588906128e3565b80601f01602080910402602001604051908101604052809291908181526020018280546105b4906128e3565b80156106015780601f106105d657610100808354040283529160200191610601565b820191906000526020600020905b8154815290600101906020018083116105e457829003601f168201915b5050505050905090565b600860009054906101000a900473ffffffffffffffffffffffffffffffffffffffff1681565b600061063c82611308565b6005600083815260200190815260200160002060009054906101000a900473ffffffffffffffffffffffffffffffffffffffff169050919050565b600061068282610c0e565b90508073ffffffffffffffffffffffffffffffffffffffff168373ffffffffffffffffffffffffffffffffffffffff1614156106f3576040517f08c379a00000000000000000000000000000000000000000000000000000000081526004016106ea90612987565b60405180910390fd5b8073ffffffffffffffffffffffffffffffffffffffff16610712611353565b73ffffffffffffffffffffffffffffffffffffffff16148061074157506107408161073b611353565b6110b6565b5b610780576040517f08c379a000000000000000000000000000000000000000000000000000000000815260040161077790612a19565b60405180910390fd5b61078a838361135b565b505050565b60095481565b6107a66107a0611353565b82611414565b6107e5576040517f08c379a00000000000000000000000000000000000000000000000000000000081526004016107dc90612aab565b60405180910390fd5b6107f08383836114a9565b505050565b60606108237fde19615caf66d406f28db8249682120949f9306d994f169128bd4a6f9e11d3ca60001b611710565b61084f7fc43d94c84bffbbeb6ca77998f73664fc2565ed3b51e0dc57adcf607321a2b8dd60001b611710565b61087b7f9bf74192bd7df3a648d62e700c0ba6c868d8268932a9cfdbb424e201522d42c260001b611710565b61088482610ebf565b9050919050565b6108b77fe6d191af0bdebff668536643415b6c634b67bdb9b5605b584a532b4fa90cc17960001b611710565b6108e37f946d75b36c8afaa29858da3d5a2d01505fe62b16940e30859fc7f8c2f4a95af360001b611710565b61090f7f21e584271fb77059e5d4f240f7548e469221f117986832b57798f826d9f06e9460001b611710565b61093b7ff73e6c444915a97ca4805738b6f137567bd538013a4fcd0b129478e050448a8b60001b611710565b600860009054906101000a900473ffffffffffffffffffffffffffffffffffffffff1673ffffffffffffffffffffffffffffffffffffffff163373ffffffffffffffffffffffffffffffffffffffff16146109cb576040517f08c379a00000000000000000000000000000000000000000000000000000000081526004016109c290612b17565b60405180910390fd5b6109f77fb00072330ffae16ba5c934c7a68d046cc013d1abe438f7be549fcb5d895c977160001b611710565b610a237f61ae7bb883898b58355ac9aed9579c01e3734a54d44570da9972ec633d72676360001b611710565b610a4f7fd54c7b6324abccd3473e4c319d9b87723232f2df7b6907800b5a0a025c96c12e60001b611710565b6001600954610a5e9190612b66565b600981905550610a907fa47cb8f6e5780e75c14d4f4d975382700babe06d461c092379436c8d6419a1ac60001b611710565b610abc7f27f14ba6f0f1cf797a06f06568422f8c2a22f31977488da611e7af28c161fc3160001b611710565b80600b600060095481526020019081526020016000209080519060200190610ae59291906120f5565b50610b127fa05b93775ed5320d1b3129b086de5a33b0688f735ce88d6ac9450f652ff2806860001b611710565b610b3e7fc669cb5193eb7ba1b18f7007853777de879efd56ba2a9f30b890f897e55a2caf60001b611710565b610b4a82600954611713565b5050565b610b6983838360405180602001604052806000815250610e5d565b505050565b600b6020528060005260406000206000915090508054610b8d906128e3565b80601f0160208091040260200160405190810160405280929190818152602001828054610bb9906128e3565b8015610c065780601f10610bdb57610100808354040283529160200191610c06565b820191906000526020600020905b815481529060010190602001808311610be957829003601f168201915b505050505081565b6000806003600084815260200190815260200160002060009054906101000a900473ffffffffffffffffffffffffffffffffffffffff169050600073ffffffffffffffffffffffffffffffffffffffff168173ffffffffffffffffffffffffffffffffffffffff161415610cb7576040517f08c379a0000000000000000000000000000000000000000000000000000000008152600401610cae90612c08565b60405180910390fd5b80915050919050565b60008073ffffffffffffffffffffffffffffffffffffffff168273ffffffffffffffffffffffffffffffffffffffff161415610d31576040517f08c379a0000000000000000000000000000000000000000000000000000000008152600401610d2890612c9a565b60405180910390fd5b600460008373ffffffffffffffffffffffffffffffffffffffff1673ffffffffffffffffffffffffffffffffffffffff168152602001908152602001600020549050919050565b610d80611731565b610d8a60006117af565b565b60008060009054906101000a900473ffffffffffffffffffffffffffffffffffffffff16905090565b606060028054610dc4906128e3565b80601f0160208091040260200160405190810160405280929190818152602001828054610df0906128e3565b8015610e3d5780601f10610e1257610100808354040283529160200191610e3d565b820191906000526020600020905b815481529060010190602001808311610e2057829003601f168201915b5050505050905090565b610e59610e52611353565b8383611873565b5050565b610e6e610e68611353565b83611414565b610ead576040517f08c379a0000000000000000000000000000000000000000000000000000000008152600401610ea490612aab565b60405180910390fd5b610eb9848484846119e0565b50505050565b6060610eca82611308565b6000600760008481526020019081526020016000208054610eea906128e3565b80601f0160208091040260200160405190810160405280929190818152602001828054610f16906128e3565b8015610f635780601f10610f3857610100808354040283529160200191610f63565b820191906000526020600020905b815481529060010190602001808311610f4657829003601f168201915b505050505090506000610f74611a3c565b9050600081511415610f8a578192505050610fcd565b600082511115610fbf578082604051602001610fa7929190612cf6565b60405160208183030381529060405292505050610fcd565b610fc884611a53565b925050505b919050565b610fda611731565b6110067f73b84967efed25bc1d4cbe1721abb8594fa81ba8ece921ce992318f19b639a9f60001b611710565b6110327f6fe0e96ddd75fc0eafd164ff9fe864dbcb97b8d793549b803168e199d4e4e99260001b611710565b61105e7f1f7c94e3fba8e1d01919c0b0e011d2e24aa6e9533fac1e481edcdc6ca321352760001b611710565b6110688282611abb565b6110947f9e4c113bc17d08e73d865796e6197b13f1c3479917782cbb28653dd0251118cd60001b611710565b600a60008154809291906110a790612d1a565b91905055505050565b600a5481565b6000600660008473ffffffffffffffffffffffffffffffffffffffff1673ffffffffffffffffffffffffffffffffffffffff16815260200190815260200160002060008373ffffffffffffffffffffffffffffffffffffffff1673ffffffffffffffffffffffffffffffffffffffff16815260200190815260200160002060009054906101000a900460ff16905092915050565b611152611731565b600073ffffffffffffffffffffffffffffffffffffffff168173ffffffffffffffffffffffffffffffffffffffff1614156111c2576040517f08c379a00000000000000000000000000000000000000000000000000000000081526004016111b990612dd5565b60405180910390fd5b6111cb816117af565b50565b6111d6611731565b6112027f6e049d1f1b49706f320d7b61e1f6862c5b78a32af48f8c6639434eafe07d7bf560001b611710565b61122e7f05aaa8645a5e7dfc1787acc52e0ea2d85320556c7b36a039ad01f702d32e587b60001b611710565b61125a7f69ff80bf03dd9e966616e34054a3bb13474ecacafaf764882f6888ecd83a67a560001b611710565b80600860006101000a81548173ffffffffffffffffffffffffffffffffffffffff021916908373ffffffffffffffffffffffffffffffffffffffff16021790555050565b60007f01ffc9a7000000000000000000000000000000000000000000000000000000007bffffffffffffffffffffffffffffffffffffffffffffffffffffffff1916827bffffffffffffffffffffffffffffffffffffffffffffffffffffffff1916149050919050565b61131181611b2f565b611350576040517f08c379a000000000000000000000000000000000000000000000000000000000815260040161134790612c08565b60405180910390fd5b50565b600033905090565b816005600083815260200190815260200160002060006101000a81548173ffffffffffffffffffffffffffffffffffffffff021916908373ffffffffffffffffffffffffffffffffffffffff160217905550808273ffffffffffffffffffffffffffffffffffffffff166113ce83610c0e565b73ffffffffffffffffffffffffffffffffffffffff167f8c5be1e5ebec7d5bd14f71427d1e84f3dd0314c0f7b2291e5b200ac8c7c3b92560405160405180910390a45050565b60008061142083610c0e565b90508073ffffffffffffffffffffffffffffffffffffffff168473ffffffffffffffffffffffffffffffffffffffff161480611462575061146181856110b6565b5b806114a057508373ffffffffffffffffffffffffffffffffffffffff1661148884610631565b73ffffffffffffffffffffffffffffffffffffffff16145b91505092915050565b8273ffffffffffffffffffffffffffffffffffffffff166114c982610c0e565b73ffffffffffffffffffffffffffffffffffffffff161461151f576040517f08c379a000000000000000000000000000000000000000000000000000000000815260040161151690612e67565b60405180910390fd5b600073ffffffffffffffffffffffffffffffffffffffff168273ffffffffffffffffffffffffffffffffffffffff16141561158f576040517f08c379a000000000000000000000000000000000000000000000000000000000815260040161158690612ef9565b60405180910390fd5b61159a838383611b9b565b6115a560008261135b565b6001600460008573ffffffffffffffffffffffffffffffffffffffff1673ffffffffffffffffffffffffffffffffffffffff16815260200190815260200160002060008282546115f59190612f19565b925050819055506001600460008473ffffffffffffffffffffffffffffffffffffffff1673ffffffffffffffffffffffffffffffffffffffff168152602001908152602001600020600082825461164c9190612b66565b92505081905550816003600083815260200190815260200160002060006101000a81548173ffffffffffffffffffffffffffffffffffffffff021916908373ffffffffffffffffffffffffffffffffffffffff160217905550808273ffffffffffffffffffffffffffffffffffffffff168473ffffffffffffffffffffffffffffffffffffffff167fddf252ad1be2c89b69c2b068fc378daa952ba7f163c4a11628f55a4df523b3ef60405160405180910390a461170b838383611ba0565b505050565b50565b61172d828260405180602001604052806000815250611ba5565b5050565b611739611353565b73ffffffffffffffffffffffffffffffffffffffff16611757610d8c565b73ffffffffffffffffffffffffffffffffffffffff16146117ad576040517f08c379a00000000000000000000000000000000000000000000000000000000081526004016117a490612f99565b60405180910390fd5b565b60008060009054906101000a900473ffffffffffffffffffffffffffffffffffffffff169050816000806101000a81548173ffffffffffffffffffffffffffffffffffffffff021916908373ffffffffffffffffffffffffffffffffffffffff1602179055508173ffffffffffffffffffffffffffffffffffffffff168173ffffffffffffffffffffffffffffffffffffffff167f8be0079c531659141344cd1fd0a4f28419497f9722a3daafe3b4186f6b6457e060405160405180910390a35050565b8173ffffffffffffffffffffffffffffffffffffffff168373ffffffffffffffffffffffffffffffffffffffff1614156118e2576040517f08c379a00000000000000000000000000000000000000000000000000000000081526004016118d990613005565b60405180910390fd5b80600660008573ffffffffffffffffffffffffffffffffffffffff1673ffffffffffffffffffffffffffffffffffffffff16815260200190815260200160002060008473ffffffffffffffffffffffffffffffffffffffff1673ffffffffffffffffffffffffffffffffffffffff16815260200190815260200160002060006101000a81548160ff0219169083151502179055508173ffffffffffffffffffffffffffffffffffffffff168373ffffffffffffffffffffffffffffffffffffffff167f17307eab39ab6107e8899845ad3d59bd9653f200f220920489ca2b5937696c31836040516119d3919061224c565b60405180910390a3505050565b6119eb8484846114a9565b6119f784848484611c00565b611a36576040517f08c379a0000000000000000000000000000000000000000000000000000000008152600401611a2d90613097565b60405180910390fd5b50505050565b606060405180602001604052806000815250905090565b6060611a5e82611308565b6000611a68611a3c565b90506000815111611a885760405180602001604052806000815250611ab3565b80611a9284611d97565b604051602001611aa3929190612cf6565b6040516020818303038152906040525b915050919050565b611ac482611b2f565b611b03576040517f08c379a0000000000000000000000000000000000000000000000000000000008152600401611afa90613129565b60405180910390fd5b80600760008481526020019081526020016000209080519060200190611b2a9291906120f5565b505050565b60008073ffffffffffffffffffffffffffffffffffffffff166003600084815260200190815260200160002060009054906101000a900473ffffffffffffffffffffffffffffffffffffffff1673ffffffffffffffffffffffffffffffffffffffff1614159050919050565b505050565b505050565b611baf8383611ef8565b611bbc6000848484611c00565b611bfb576040517f08c379a0000000000000000000000000000000000000000000000000000000008152600401611bf290613097565b60405180910390fd5b505050565b6000611c218473ffffffffffffffffffffffffffffffffffffffff166120d2565b15611d8a578373ffffffffffffffffffffffffffffffffffffffff1663150b7a02611c4a611353565b8786866040518563ffffffff1660e01b8152600401611c6c949392919061319e565b602060405180830381600087803b158015611c8657600080fd5b505af1925050508015611cb757506040513d601f19601f82011682018060405250810190611cb491906131ff565b60015b611d3a573d8060008114611ce7576040519150601f19603f3d011682016040523d82523d6000602084013e611cec565b606091505b50600081511415611d32576040517f08c379a0000000000000000000000000000000000000000000000000000000008152600401611d2990613097565b60405180910390fd5b805181602001fd5b63150b7a0260e01b7bffffffffffffffffffffffffffffffffffffffffffffffffffffffff1916817bffffffffffffffffffffffffffffffffffffffffffffffffffffffff191614915050611d8f565b600190505b949350505050565b60606000821415611ddf576040518060400160405280600181526020017f30000000000000000000000000000000000000000000000000000000000000008152509050611ef3565b600082905060005b60008214611e11578080611dfa90612d1a565b915050600a82611e0a919061325b565b9150611de7565b60008167ffffffffffffffff811115611e2d57611e2c6124d4565b5b6040519080825280601f01601f191660200182016040528015611e5f5781602001600182028036833780820191505090505b5090505b60008514611eec57600182611e789190612f19565b9150600a85611e87919061328c565b6030611e939190612b66565b60f81b818381518110611ea957611ea86132bd565b5b60200101907effffffffffffffffffffffffffffffffffffffffffffffffffffffffffffff1916908160001a905350600a85611ee5919061325b565b9450611e63565b8093505050505b919050565b600073ffffffffffffffffffffffffffffffffffffffff168273ffffffffffffffffffffffffffffffffffffffff161415611f68576040517f08c379a0000000000000000000000000000000000000000000000000000000008152600401611f5f90613338565b60405180910390fd5b611f7181611b2f565b15611fb1576040517f08c379a0000000000000000000000000000000000000000000000000000000008152600401611fa8906133a4565b60405180910390fd5b611fbd60008383611b9b565b6001600460008473ffffffffffffffffffffffffffffffffffffffff1673ffffffffffffffffffffffffffffffffffffffff168152602001908152602001600020600082825461200d9190612b66565b92505081905550816003600083815260200190815260200160002060006101000a81548173ffffffffffffffffffffffffffffffffffffffff021916908373ffffffffffffffffffffffffffffffffffffffff160217905550808273ffffffffffffffffffffffffffffffffffffffff16600073ffffffffffffffffffffffffffffffffffffffff167fddf252ad1be2c89b69c2b068fc378daa952ba7f163c4a11628f55a4df523b3ef60405160405180910390a46120ce60008383611ba0565b5050565b6000808273ffffffffffffffffffffffffffffffffffffffff163b119050919050565b828054612101906128e3565b90600052602060002090601f016020900481019282612123576000855561216a565b82601f1061213c57805160ff191683800117855561216a565b8280016001018555821561216a579182015b8281111561216957825182559160200191906001019061214e565b5b509050612177919061217b565b5090565b5b8082111561219457600081600090555060010161217c565b5090565b6000604051905090565b600080fd5b600080fd5b60007fffffffff0000000000000000000000000000000000000000000000000000000082169050919050565b6121e1816121ac565b81146121ec57600080fd5b50565b6000813590506121fe816121d8565b92915050565b60006020828403121561221a576122196121a2565b5b6000612228848285016121ef565b91505092915050565b60008115159050919050565b61224681612231565b82525050565b6000602082019050612261600083018461223d565b92915050565b600081519050919050565b600082825260208201905092915050565b60005b838110156122a1578082015181840152602081019050612286565b838111156122b0576000848401525b50505050565b6000601f19601f8301169050919050565b60006122d282612267565b6122dc8185612272565b93506122ec818560208601612283565b6122f5816122b6565b840191505092915050565b6000602082019050818103600083015261231a81846122c7565b905092915050565b600073ffffffffffffffffffffffffffffffffffffffff82169050919050565b600061234d82612322565b9050919050565b61235d81612342565b82525050565b60006020820190506123786000830184612354565b92915050565b6000819050919050565b6123918161237e565b811461239c57600080fd5b50565b6000813590506123ae81612388565b92915050565b6000602082840312156123ca576123c96121a2565b5b60006123d88482850161239f565b91505092915050565b6123ea81612342565b81146123f557600080fd5b50565b600081359050612407816123e1565b92915050565b60008060408385031215612424576124236121a2565b5b6000612432858286016123f8565b92505060206124438582860161239f565b9150509250929050565b6124568161237e565b82525050565b6000602082019050612471600083018461244d565b92915050565b6000806000606084860312156124905761248f6121a2565b5b600061249e868287016123f8565b93505060206124af868287016123f8565b92505060406124c08682870161239f565b9150509250925092565b600080fd5b600080fd5b7f4e487b7100000000000000000000000000000000000000000000000000000000600052604160045260246000fd5b61250c826122b6565b810181811067ffffffffffffffff8211171561252b5761252a6124d4565b5b80604052505050565b600061253e612198565b905061254a8282612503565b919050565b600067ffffffffffffffff82111561256a576125696124d4565b5b612573826122b6565b9050602081019050919050565b82818337600083830152505050565b60006125a261259d8461254f565b612534565b9050828152602081018484840111156125be576125bd6124cf565b5b6125c9848285612580565b509392505050565b600082601f8301126125e6576125e56124ca565b5b81356125f684826020860161258f565b91505092915050565b60008060408385031215612616576126156121a2565b5b6000612624858286016123f8565b925050602083013567ffffffffffffffff811115612645576126446121a7565b5b612651858286016125d1565b9150509250929050565b600060208284031215612671576126706121a2565b5b600061267f848285016123f8565b91505092915050565b61269181612231565b811461269c57600080fd5b50565b6000813590506126ae81612688565b92915050565b600080604083850312156126cb576126ca6121a2565b5b60006126d9858286016123f8565b92505060206126ea8582860161269f565b9150509250929050565b600067ffffffffffffffff82111561270f5761270e6124d4565b5b612718826122b6565b9050602081019050919050565b6000612738612733846126f4565b612534565b905082815260208101848484011115612754576127536124cf565b5b61275f848285612580565b509392505050565b600082601f83011261277c5761277b6124ca565b5b813561278c848260208601612725565b91505092915050565b600080600080608085870312156127af576127ae6121a2565b5b60006127bd878288016123f8565b94505060206127ce878288016123f8565b93505060406127df8782880161239f565b925050606085013567ffffffffffffffff811115612800576127ff6121a7565b5b61280c87828801612767565b91505092959194509250565b6000806040838503121561282f5761282e6121a2565b5b600061283d8582860161239f565b925050602083013567ffffffffffffffff81111561285e5761285d6121a7565b5b61286a858286016125d1565b9150509250929050565b6000806040838503121561288b5761288a6121a2565b5b6000612899858286016123f8565b92505060206128aa858286016123f8565b9150509250929050565b7f4e487b7100000000000000000000000000000000000000000000000000000000600052602260045260246000fd5b600060028204905060018216806128fb57607f821691505b6020821081141561290f5761290e6128b4565b5b50919050565b7f4552433732313a20617070726f76616c20746f2063757272656e74206f776e6560008201527f7200000000000000000000000000000000000000000000000000000000000000602082015250565b6000612971602183612272565b915061297c82612915565b604082019050919050565b600060208201905081810360008301526129a081612964565b9050919050565b7f4552433732313a20617070726f76652063616c6c6572206973206e6f7420746f60008201527f6b656e206f776e6572206e6f7220617070726f76656420666f7220616c6c0000602082015250565b6000612a03603e83612272565b9150612a0e826129a7565b604082019050919050565b60006020820190508181036000830152612a32816129f6565b9050919050565b7f4552433732313a2063616c6c6572206973206e6f7420746f6b656e206f776e6560008201527f72206e6f7220617070726f766564000000000000000000000000000000000000602082015250565b6000612a95602e83612272565b9150612aa082612a39565b604082019050919050565b60006020820190508181036000830152612ac481612a88565b9050919050565b7f4f6e6c79206d696e7465722063616e206d696e74204e46540000000000000000600082015250565b6000612b01601883612272565b9150612b0c82612acb565b602082019050919050565b60006020820190508181036000830152612b3081612af4565b9050919050565b7f4e487b7100000000000000000000000000000000000000000000000000000000600052601160045260246000fd5b6000612b718261237e565b9150612b7c8361237e565b9250827fffffffffffffffffffffffffffffffffffffffffffffffffffffffffffffffff03821115612bb157612bb0612b37565b5b828201905092915050565b7f4552433732313a20696e76616c696420746f6b656e2049440000000000000000600082015250565b6000612bf2601883612272565b9150612bfd82612bbc565b602082019050919050565b60006020820190508181036000830152612c2181612be5565b9050919050565b7f4552433732313a2061646472657373207a65726f206973206e6f74206120766160008201527f6c6964206f776e65720000000000000000000000000000000000000000000000602082015250565b6000612c84602983612272565b9150612c8f82612c28565b604082019050919050565b60006020820190508181036000830152612cb381612c77565b9050919050565b600081905092915050565b6000612cd082612267565b612cda8185612cba565b9350612cea818560208601612283565b80840191505092915050565b6000612d028285612cc5565b9150612d0e8284612cc5565b91508190509392505050565b6000612d258261237e565b91507fffffffffffffffffffffffffffffffffffffffffffffffffffffffffffffffff821415612d5857612d57612b37565b5b600182019050919050565b7f4f776e61626c653a206e6577206f776e657220697320746865207a65726f206160008201527f6464726573730000000000000000000000000000000000000000000000000000602082015250565b6000612dbf602683612272565b9150612dca82612d63565b604082019050919050565b60006020820190508181036000830152612dee81612db2565b9050919050565b7f4552433732313a207472616e736665722066726f6d20696e636f72726563742060008201527f6f776e6572000000000000000000000000000000000000000000000000000000602082015250565b6000612e51602583612272565b9150612e5c82612df5565b604082019050919050565b60006020820190508181036000830152612e8081612e44565b9050919050565b7f4552433732313a207472616e7366657220746f20746865207a65726f2061646460008201527f7265737300000000000000000000000000000000000000000000000000000000602082015250565b6000612ee3602483612272565b9150612eee82612e87565b604082019050919050565b60006020820190508181036000830152612f1281612ed6565b9050919050565b6000612f248261237e565b9150612f2f8361237e565b925082821015612f4257612f41612b37565b5b828203905092915050565b7f4f776e61626c653a2063616c6c6572206973206e6f7420746865206f776e6572600082015250565b6000612f83602083612272565b9150612f8e82612f4d565b602082019050919050565b60006020820190508181036000830152612fb281612f76565b9050919050565b7f4552433732313a20617070726f766520746f2063616c6c657200000000000000600082015250565b6000612fef601983612272565b9150612ffa82612fb9565b602082019050919050565b6000602082019050818103600083015261301e81612fe2565b9050919050565b7f4552433732313a207472616e7366657220746f206e6f6e20455243373231526560008201527f63656976657220696d706c656d656e7465720000000000000000000000000000602082015250565b6000613081603283612272565b915061308c82613025565b604082019050919050565b600060208201905081810360008301526130b081613074565b9050919050565b7f45524337323155524953746f726167653a2055524920736574206f66206e6f6e60008201527f6578697374656e7420746f6b656e000000000000000000000000000000000000602082015250565b6000613113602e83612272565b915061311e826130b7565b604082019050919050565b6000602082019050818103600083015261314281613106565b9050919050565b600081519050919050565b600082825260208201905092915050565b600061317082613149565b61317a8185613154565b935061318a818560208601612283565b613193816122b6565b840191505092915050565b60006080820190506131b36000830187612354565b6131c06020830186612354565b6131cd604083018561244d565b81810360608301526131df8184613165565b905095945050505050565b6000815190506131f9816121d8565b92915050565b600060208284031215613215576132146121a2565b5b6000613223848285016131ea565b91505092915050565b7f4e487b7100000000000000000000000000000000000000000000000000000000600052601260045260246000fd5b60006132668261237e565b91506132718361237e565b9250826132815761328061322c565b5b828204905092915050565b60006132978261237e565b91506132a28361237e565b9250826132b2576132b161322c565b5b828206905092915050565b7f4e487b7100000000000000000000000000000000000000000000000000000000600052603260045260246000fd5b7f4552433732313a206d696e7420746f20746865207a65726f2061646472657373600082015250565b6000613322602083612272565b915061332d826132ec565b602082019050919050565b6000602082019050818103600083015261335181613315565b9050919050565b7f4552433732313a20746f6b656e20616c7265616479206d696e74656400000000600082015250565b600061338e601c83612272565b915061339982613358565b602082019050919050565b600060208201905081810360008301526133bd81613381565b905091905056fea264697066735822122014e05bd1a32e6b4dd58ed2f04939678cc6a46f9f32275fd50cb744b5a0d4c25364736f6c63430008090033",
    "linkReferences": {},
    "deployedLinkReferences": {}
}