{
  "_format": "hh-sol-artifact-1",
  "contractName": "BuggyToken",
  "sourceName": "contracts/BuggyToken.sol",
  "abi": [
    {
      "inputs": [],
      "stateMutability": "nonpayable",
      "type": "constructor"
    },
    {
      "anonymous": false,
      "inputs": [
        {
          "indexed": true,
          "internalType": "address",
          "name": "owner",
          "type": "address"
        },
        {
          "indexed": true,
          "internalType": "address",
          "name": "spender",
          "type": "address"
        },
        {
          "indexed": false,
          "internalType": "uint256",
          "name": "value",
          "type": "uint256"
        }
      ],
      "name": "Approval",
      "type": "event"
    },
    {
      "anonymous": false,
      "inputs": [
        {
          "indexed": true,
          "internalType": "address",
          "name": "previousOwner",
          "type": "address"
        },
        {
          "indexed": true,
          "internalType": "address",
          "name": "newOwner",
          "type": "address"
        }
      ],
      "name": "OwnershipTransferred",
      "type": "event"
    },
    {
      "anonymous": false,
      "inputs": [
        {
          "indexed": true,
          "internalType": "address",
          "name": "from",
          "type": "address"
        },
        {
          "indexed": true,
          "internalType": "address",
          "name": "to",
          "type": "address"
        },
        {
          "indexed": false,
          "internalType": "uint256",
          "name": "value",
          "type": "uint256"
        }
      ],
      "name": "Transfer",
      "type": "event"
    },
    {
      "inputs": [
        {
          "internalType": "address",
          "name": "owner",
          "type": "address"
        },
        {
          "internalType": "address",
          "name": "spender",
          "type": "address"
        }
      ],
      "name": "allowance",
      "outputs": [
        {
          "internalType": "uint256",
          "name": "",
          "type": "uint256"
        }
      ],
      "stateMutability": "view",
      "type": "function"
    },
    {
      "inputs": [
        {
          "internalType": "address",
          "name": "spender",
          "type": "address"
        },
        {
          "internalType": "uint256",
          "name": "amount",
          "type": "uint256"
        }
      ],
      "name": "approve",
      "outputs": [
        {
          "internalType": "bool",
          "name": "",
          "type": "bool"
        }
      ],
      "stateMutability": "nonpayable",
      "type": "function"
    },
    {
      "inputs": [
        {
          "internalType": "address",
          "name": "account",
          "type": "address"
        }
      ],
      "name": "balanceOf",
      "outputs": [
        {
          "internalType": "uint256",
          "name": "",
          "type": "uint256"
        }
      ],
      "stateMutability": "view",
      "type": "function"
    },
    {
      "inputs": [],
      "name": "decimals",
      "outputs": [
        {
          "internalType": "uint8",
          "name": "",
          "type": "uint8"
        }
      ],
      "stateMutability": "view",
      "type": "function"
    },
    {
      "inputs": [
        {
          "internalType": "address",
          "name": "spender",
          "type": "address"
        },
        {
          "internalType": "uint256",
          "name": "subtractedValue",
          "type": "uint256"
        }
      ],
      "name": "decreaseAllowance",
      "outputs": [
        {
          "internalType": "bool",
          "name": "",
          "type": "bool"
        }
      ],
      "stateMutability": "nonpayable",
      "type": "function"
    },
    {
      "inputs": [
        {
          "internalType": "address",
          "name": "spender",
          "type": "address"
        },
        {
          "internalType": "uint256",
          "name": "addedValue",
          "type": "uint256"
        }
      ],
      "name": "increaseAllowance",
      "outputs": [
        {
          "internalType": "bool",
          "name": "",
          "type": "bool"
        }
      ],
      "stateMutability": "nonpayable",
      "type": "function"
    },
    {
      "inputs": [
        {
          "internalType": "address",
          "name": "_sponsor",
          "type": "address"
        },
        {
          "internalType": "uint256",
          "name": "_amount",
          "type": "uint256"
        }
      ],
      "name": "mintToken",
      "outputs": [],
      "stateMutability": "nonpayable",
      "type": "function"
    },
    {
      "inputs": [],
      "name": "minter",
      "outputs": [
        {
          "internalType": "address",
          "name": "",
          "type": "address"
        }
      ],
      "stateMutability": "view",
      "type": "function"
    },
    {
      "inputs": [],
      "name": "name",
      "outputs": [
        {
          "internalType": "string",
          "name": "",
          "type": "string"
        }
      ],
      "stateMutability": "view",
      "type": "function"
    },
    {
      "inputs": [],
      "name": "owner",
      "outputs": [
        {
          "internalType": "address",
          "name": "",
          "type": "address"
        }
      ],
      "stateMutability": "view",
      "type": "function"
    },
    {
      "inputs": [],
      "name": "renounceOwnership",
      "outputs": [],
      "stateMutability": "nonpayable",
      "type": "function"
    },
    {
      "inputs": [
        {
          "internalType": "address",
          "name": "_minter",
          "type": "address"
        }
      ],
      "name": "setMinter",
      "outputs": [],
      "stateMutability": "nonpayable",
      "type": "function"
    },
    {
      "inputs": [],
      "name": "symbol",
      "outputs": [
        {
          "internalType": "string",
          "name": "",
          "type": "string"
        }
      ],
      "stateMutability": "view",
      "type": "function"
    },
    {
      "inputs": [],
      "name": "totalSupply",
      "outputs": [
        {
          "internalType": "uint256",
          "name": "",
          "type": "uint256"
        }
      ],
      "stateMutability": "view",
      "type": "function"
    },
    {
      "inputs": [
        {
          "internalType": "address",
          "name": "to",
          "type": "address"
        },
        {
          "internalType": "uint256",
          "name": "amount",
          "type": "uint256"
        }
      ],
      "name": "transfer",
      "outputs": [
        {
          "internalType": "bool",
          "name": "",
          "type": "bool"
        }
      ],
      "stateMutability": "nonpayable",
      "type": "function"
    },
    {
      "inputs": [
        {
          "internalType": "address",
          "name": "from",
          "type": "address"
        },
        {
          "internalType": "address",
          "name": "to",
          "type": "address"
        },
        {
          "internalType": "uint256",
          "name": "amount",
          "type": "uint256"
        }
      ],
      "name": "transferFrom",
      "outputs": [
        {
          "internalType": "bool",
          "name": "",
          "type": "bool"
        }
      ],
      "stateMutability": "nonpayable",
      "type": "function"
    },
    {
      "inputs": [
        {
          "internalType": "address",
          "name": "newOwner",
          "type": "address"
        }
      ],
      "name": "transferOwnership",
      "outputs": [],
      "stateMutability": "nonpayable",
      "type": "function"
    }
  ],
  "bytecode": "0x60806040523480156200001157600080fd5b5060405180604001604052806005815260200164427567677960d81b8152506040518060400160405280600381526020016242475960e81b815250816003908051906020019062000064929190620001e8565b5080516200007a906004906020840190620001e8565b5050506200009762000091620000aa60201b60201c565b620000ae565b620000a433600062000100565b620002f2565b3390565b600580546001600160a01b038381166001600160a01b0319831681179093556040519116919082907f8be0079c531659141344cd1fd0a4f28419497f9722a3daafe3b4186f6b6457e090600090a35050565b6001600160a01b0382166200015b5760405162461bcd60e51b815260206004820152601f60248201527f45524332303a206d696e7420746f20746865207a65726f206164647265737300604482015260640160405180910390fd5b80600260008282546200016f91906200028e565b90915550506001600160a01b038216600090815260208190526040812080548392906200019e9084906200028e565b90915550506040518181526001600160a01b038316906000907fddf252ad1be2c89b69c2b068fc378daa952ba7f163c4a11628f55a4df523b3ef9060200160405180910390a35050565b828054620001f690620002b5565b90600052602060002090601f0160209004810192826200021a576000855562000265565b82601f106200023557805160ff191683800117855562000265565b8280016001018555821562000265579182015b828111156200026557825182559160200191906001019062000248565b506200027392915062000277565b5090565b5b8082111562000273576000815560010162000278565b60008219821115620002b057634e487b7160e01b600052601160045260246000fd5b500190565b600181811c90821680620002ca57607f821691505b60208210811415620002ec57634e487b7160e01b600052602260045260246000fd5b50919050565b610c1280620003026000396000f3fe608060405234801561001057600080fd5b506004361061010b5760003560e01c8063715018a6116100a2578063a457c2d711610071578063a457c2d714610222578063a9059cbb14610235578063dd62ed3e14610248578063f2fde38b1461025b578063fca3b5aa1461026e57600080fd5b8063715018a6146101ec57806379c65068146101f65780638da5cb5b1461020957806395d89b411461021a57600080fd5b806323b872dd116100de57806323b872dd1461018e578063313ce567146101a157806339509351146101b057806370a08231146101c357600080fd5b806306fdde0314610110578063075461721461012e578063095ea7b31461015957806318160ddd1461017c575b600080fd5b610118610281565b6040516101259190610a4f565b60405180910390f35b600654610141906001600160a01b031681565b6040516001600160a01b039091168152602001610125565b61016c610167366004610ac0565b610313565b6040519015158152602001610125565b6002545b604051908152602001610125565b61016c61019c366004610aea565b61032b565b60405160128152602001610125565b61016c6101be366004610ac0565b61034f565b6101806101d1366004610b26565b6001600160a01b031660009081526020819052604090205490565b6101f4610371565b005b6101f4610204366004610ac0565b610385565b6005546001600160a01b0316610141565b6101186103f2565b61016c610230366004610ac0565b610401565b61016c610243366004610ac0565b61047c565b610180610256366004610b48565b61048a565b6101f4610269366004610b26565b6104b5565b6101f461027c366004610b26565b61052e565b60606003805461029090610b7b565b80601f01602080910402602001604051908101604052809291908181526020018280546102bc90610b7b565b80156103095780601f106102de57610100808354040283529160200191610309565b820191906000526020600020905b8154815290600101906020018083116102ec57829003601f168201915b5050505050905090565b600033610321818585610558565b5060019392505050565b60003361033985828561067c565b6103448585856106f6565b506001949350505050565b600033610321818585610362838361048a565b61036c9190610bb6565b610558565b6103796108c4565b610383600061091e565b565b6006546001600160a01b031633146103e45760405162461bcd60e51b815260206004820152601b60248201527f4f6e6c79206d696e7465722063616e206d696e7420746f6b656e73000000000060448201526064015b60405180910390fd5b6103ee8282610970565b5050565b60606004805461029090610b7b565b6000338161040f828661048a565b90508381101561046f5760405162461bcd60e51b815260206004820152602560248201527f45524332303a2064656372656173656420616c6c6f77616e63652062656c6f77604482015264207a65726f60d81b60648201526084016103db565b6103448286868403610558565b6000336103218185856106f6565b6001600160a01b03918216600090815260016020908152604080832093909416825291909152205490565b6104bd6108c4565b6001600160a01b0381166105225760405162461bcd60e51b815260206004820152602660248201527f4f776e61626c653a206e6577206f776e657220697320746865207a65726f206160448201526564647265737360d01b60648201526084016103db565b61052b8161091e565b50565b6105366108c4565b600680546001600160a01b0319166001600160a01b0392909216919091179055565b6001600160a01b0383166105ba5760405162461bcd60e51b8152602060048201526024808201527f45524332303a20617070726f76652066726f6d20746865207a65726f206164646044820152637265737360e01b60648201526084016103db565b6001600160a01b03821661061b5760405162461bcd60e51b815260206004820152602260248201527f45524332303a20617070726f766520746f20746865207a65726f206164647265604482015261737360f01b60648201526084016103db565b6001600160a01b0383811660008181526001602090815260408083209487168084529482529182902085905590518481527f8c5be1e5ebec7d5bd14f71427d1e84f3dd0314c0f7b2291e5b200ac8c7c3b925910160405180910390a3505050565b6000610688848461048a565b905060001981146106f057818110156106e35760405162461bcd60e51b815260206004820152601d60248201527f45524332303a20696e73756666696369656e7420616c6c6f77616e636500000060448201526064016103db565b6106f08484848403610558565b50505050565b6001600160a01b03831661075a5760405162461bcd60e51b815260206004820152602560248201527f45524332303a207472616e736665722066726f6d20746865207a65726f206164604482015264647265737360d81b60648201526084016103db565b6001600160a01b0382166107bc5760405162461bcd60e51b815260206004820152602360248201527f45524332303a207472616e7366657220746f20746865207a65726f206164647260448201526265737360e81b60648201526084016103db565b6001600160a01b038316600090815260208190526040902054818110156108345760405162461bcd60e51b815260206004820152602660248201527f45524332303a207472616e7366657220616d6f756e7420657863656564732062604482015265616c616e636560d01b60648201526084016103db565b6001600160a01b0380851660009081526020819052604080822085850390559185168152908120805484929061086b908490610bb6565b92505081905550826001600160a01b0316846001600160a01b03167fddf252ad1be2c89b69c2b068fc378daa952ba7f163c4a11628f55a4df523b3ef846040516108b791815260200190565b60405180910390a36106f0565b6005546001600160a01b031633146103835760405162461bcd60e51b815260206004820181905260248201527f4f776e61626c653a2063616c6c6572206973206e6f7420746865206f776e657260448201526064016103db565b600580546001600160a01b038381166001600160a01b0319831681179093556040519116919082907f8be0079c531659141344cd1fd0a4f28419497f9722a3daafe3b4186f6b6457e090600090a35050565b6001600160a01b0382166109c65760405162461bcd60e51b815260206004820152601f60248201527f45524332303a206d696e7420746f20746865207a65726f20616464726573730060448201526064016103db565b80600260008282546109d89190610bb6565b90915550506001600160a01b03821660009081526020819052604081208054839290610a05908490610bb6565b90915550506040518181526001600160a01b038316906000907fddf252ad1be2c89b69c2b068fc378daa952ba7f163c4a11628f55a4df523b3ef9060200160405180910390a35050565b600060208083528351808285015260005b81811015610a7c57858101830151858201604001528201610a60565b81811115610a8e576000604083870101525b50601f01601f1916929092016040019392505050565b80356001600160a01b0381168114610abb57600080fd5b919050565b60008060408385031215610ad357600080fd5b610adc83610aa4565b946020939093013593505050565b600080600060608486031215610aff57600080fd5b610b0884610aa4565b9250610b1660208501610aa4565b9150604084013590509250925092565b600060208284031215610b3857600080fd5b610b4182610aa4565b9392505050565b60008060408385031215610b5b57600080fd5b610b6483610aa4565b9150610b7260208401610aa4565b90509250929050565b600181811c90821680610b8f57607f821691505b60208210811415610bb057634e487b7160e01b600052602260045260246000fd5b50919050565b60008219821115610bd757634e487b7160e01b600052601160045260246000fd5b50019056fea26469706673582212200c58a9cb208c6fa88b422384fa4f71e8c4643eb89be191d301a2dc0d05ec147564736f6c63430008090033",
  "linkReferences": {},
  "deployedLinkReferences": {}
}