{
    "_format": "hh-sol-artifact-1",
    "contractName": "CryptoBuggy",
    "sourceName": "contracts/CryptoBuggy.sol",
    "abi": [
        {
            "inputs": [
                {
                    "internalType": "uint256",
                    "name": "_price",
                    "type": "uint256"
                },
                {
                    "internalType": "address",
                    "name": "_nft",
                    "type": "address"
                },
                {
                    "internalType": "address",
                    "name": "_buggyToken",
                    "type": "address"
                }
            ],
            "stateMutability": "nonpayable",
            "type": "constructor"
        },
        {
            "inputs": [
                {
                    "internalType": "string",
                    "name": "_signature",
                    "type": "string"
                },
                {
                    "internalType": "uint256",
                    "name": "count",
                    "type": "uint256"
                }
            ],
            "name": "addFund",
            "outputs": [],
            "stateMutability": "payable",
            "type": "function"
        },
        {
            "inputs": [],
            "name": "buggyToken",
            "outputs": [
                {
                    "internalType": "contract BuggyToken",
                    "name": "",
                    "type": "address"
                }
            ],
            "stateMutability": "view",
            "type": "function"
        },
        {
            "inputs": [],
            "name": "nft",
            "outputs": [
                {
                    "internalType": "contract NFT",
                    "name": "",
                    "type": "address"
                }
            ],
            "stateMutability": "view",
            "type": "function"
        },
        {
            "inputs": [],
            "name": "price",
            "outputs": [
                {
                    "internalType": "uint256",
                    "name": "",
                    "type": "uint256"
                }
            ],
            "stateMutability": "view",
            "type": "function"
        }
    ],
    "bytecode": "0x608060405234801561001057600080fd5b5060405161052c38038061052c83398101604081905261002f91610082565b600092909255600180546001600160a01b039283166001600160a01b031991821617909155600280549290931691161790556100be565b80516001600160a01b038116811461007d57600080fd5b919050565b60008060006060848603121561009757600080fd5b835192506100a760208501610066565b91506100b560408501610066565b90509250925092565b61045f806100cd6000396000f3fe60806040526004361061003f5760003560e01c806344761aa91461004457806347ccca0214610081578063925b7cb6146100a1578063a035b1fe146100b6575b600080fd5b34801561005057600080fd5b50600254610064906001600160a01b031681565b6040516001600160a01b0390911681526020015b60405180910390f35b34801561008d57600080fd5b50600154610064906001600160a01b031681565b6100b46100af3660046102bf565b6100da565b005b3480156100c257600080fd5b506100cc60005481565b604051908152602001610078565b6000816000546100ea919061038a565b905080341461014a5760405162461bcd60e51b815260206004820152602260248201527f4e6f7420656e6f7567682066756e647320746f2063726561746520746865204e604482015261119560f21b606482015260840160405180910390fd5b81600114156101bc57600154604051633d02d0c960e01b81526001600160a01b0390911690633d02d0c99061018590339087906004016103a9565b600060405180830381600087803b15801561019f57600080fd5b505af11580156101b3573d6000803e3d6000fd5b50505050610240565b60005b8281101561023e57600154604051633d02d0c960e01b81526001600160a01b0390911690633d02d0c9906101f990339088906004016103a9565b600060405180830381600087803b15801561021357600080fd5b505af1158015610227573d6000803e3d6000fd5b5050505080806102369061040e565b9150506101bf565b505b600254604051630f38ca0d60e31b8152336004820152602481018390526001600160a01b03909116906379c6506890604401600060405180830381600087803b15801561028c57600080fd5b505af11580156102a0573d6000803e3d6000fd5b50505050505050565b634e487b7160e01b600052604160045260246000fd5b600080604083850312156102d257600080fd5b823567ffffffffffffffff808211156102ea57600080fd5b818501915085601f8301126102fe57600080fd5b813581811115610310576103106102a9565b604051601f8201601f19908116603f01168101908382118183101715610338576103386102a9565b8160405282815288602084870101111561035157600080fd5b826020860160208301376000602093820184015298969091013596505050505050565b634e487b7160e01b600052601160045260246000fd5b60008160001904831182151516156103a4576103a4610374565b500290565b60018060a01b038316815260006020604081840152835180604085015260005b818110156103e5578581018301518582016060015282016103c9565b818111156103f7576000606083870101525b50601f01601f191692909201606001949350505050565b600060001982141561042257610422610374565b506001019056fea2646970667358221220b4b9a5d6f304fbc9ff86d6e603a2aeee51572918bb891b215b2ec671d76d40c464736f6c63430008090033",
    "linkReferences": {},
    "deployedLinkReferences": {}
}