{
    "_format": "hh-sol-artifact-1",
    "contractName": "CryptoBuggy",
    "sourceName": "contracts/CryptoBuggy.sol",
    "abi": [
        {
            "inputs": [
                {
                    "internalType": "uint256",
                    "name": "_price",
                    "type": "uint256"
                },
                {
                    "internalType": "address",
                    "name": "_nft",
                    "type": "address"
                },
                {
                    "internalType": "address",
                    "name": "_partialNft",
                    "type": "address"
                },
                {
                    "internalType": "address",
                    "name": "_buggyToken",
                    "type": "address"
                }
            ],
            "stateMutability": "nonpayable",
            "type": "constructor"
        },
        {
            "anonymous": false,
            "inputs": [
                {
                    "indexed": true,
                    "internalType": "address",
                    "name": "previousOwner",
                    "type": "address"
                },
                {
                    "indexed": true,
                    "internalType": "address",
                    "name": "newOwner",
                    "type": "address"
                }
            ],
            "name": "OwnershipTransferred",
            "type": "event"
        },
        {
            "inputs": [
                {
                    "internalType": "string",
                    "name": "_signature",
                    "type": "string"
                },
                {
                    "internalType": "uint256",
                    "name": "count",
                    "type": "uint256"
                }
            ],
            "name": "addFund",
            "outputs": [],
            "stateMutability": "payable",
            "type": "function"
        },
        {
            "inputs": [
                {
                    "internalType": "string",
                    "name": "_signature",
                    "type": "string"
                }
            ],
            "name": "addFundPartially",
            "outputs": [],
            "stateMutability": "payable",
            "type": "function"
        },
        {
            "inputs": [],
            "name": "boughtBuggy",
            "outputs": [
                {
                    "internalType": "uint256",
                    "name": "",
                    "type": "uint256"
                }
            ],
            "stateMutability": "view",
            "type": "function"
        },
        {
            "inputs": [],
            "name": "buggyNFT",
            "outputs": [
                {
                    "internalType": "contract BuggyNFT",
                    "name": "",
                    "type": "address"
                }
            ],
            "stateMutability": "view",
            "type": "function"
        },
        {
            "inputs": [],
            "name": "buggyToken",
            "outputs": [
                {
                    "internalType": "contract BuggyToken",
                    "name": "",
                    "type": "address"
                }
            ],
            "stateMutability": "view",
            "type": "function"
        },
        {
            "inputs": [],
            "name": "owner",
            "outputs": [
                {
                    "internalType": "address",
                    "name": "",
                    "type": "address"
                }
            ],
            "stateMutability": "view",
            "type": "function"
        },
        {
            "inputs": [],
            "name": "partialBuggyNFT",
            "outputs": [
                {
                    "internalType": "contract PartialBuggyNFT",
                    "name": "",
                    "type": "address"
                }
            ],
            "stateMutability": "view",
            "type": "function"
        },
        {
            "inputs": [],
            "name": "price",
            "outputs": [
                {
                    "internalType": "uint256",
                    "name": "",
                    "type": "uint256"
                }
            ],
            "stateMutability": "view",
            "type": "function"
        },
        {
            "inputs": [],
            "name": "raised",
            "outputs": [
                {
                    "internalType": "uint256",
                    "name": "",
                    "type": "uint256"
                }
            ],
            "stateMutability": "view",
            "type": "function"
        },
        {
            "inputs": [],
            "name": "renounceOwnership",
            "outputs": [],
            "stateMutability": "nonpayable",
            "type": "function"
        },
        {
            "inputs": [
                {
                    "internalType": "address",
                    "name": "newOwner",
                    "type": "address"
                }
            ],
            "name": "transferOwnership",
            "outputs": [],
            "stateMutability": "nonpayable",
            "type": "function"
        },
        {
            "inputs": [],
            "name": "uniqUsers",
            "outputs": [
                {
                    "internalType": "uint256",
                    "name": "",
                    "type": "uint256"
                }
            ],
            "stateMutability": "view",
            "type": "function"
        },
        {
            "inputs": [
                {
                    "internalType": "address",
                    "name": "",
                    "type": "address"
                }
            ],
            "name": "users",
            "outputs": [
                {
                    "internalType": "uint256",
                    "name": "",
                    "type": "uint256"
                }
            ],
            "stateMutability": "view",
            "type": "function"
        },
        {
            "inputs": [
                {
                    "internalType": "address",
                    "name": "_beneficiary",
                    "type": "address"
                }
            ],
            "name": "withdraw",
            "outputs": [],
            "stateMutability": "nonpayable",
            "type": "function"
        }
    ],
    "bytecode": "0x60806040523480156200001157600080fd5b5060405162001c0c38038062001c0c8339818101604052810190620000379190620003ee565b620000576200004b620002ff60201b60201c565b6200030760201b60201c565b6200008b7fa62cbbe186765ae3ebe00ea7ab4aa8a02b6895af4417c903cc71f7287ea208fc60001b620003cb60201b60201c565b620000bf7fb874dae464d0a632399a9f29605e02131476d3946bea8b56f4d82664134e159960001b620003cb60201b60201c565b620000f37fec7e58b83278d48d117f0055d2f534bc006f48afd427e75eaed4d8f8c1186dca60001b620003cb60201b60201c565b836001819055506200012e7fb21049da8effc2f3d0c03ebeb6badc14058d240e557eea201f5a3adac9e2e92e60001b620003cb60201b60201c565b620001627f406ffc670611a0c97ebd6c9c138c11a4300c0f9dbbdd120b6fd46922577da09a60001b620003cb60201b60201c565b82600560006101000a81548173ffffffffffffffffffffffffffffffffffffffff021916908373ffffffffffffffffffffffffffffffffffffffff160217905550620001d77f2680fac9a37663ecadc1d375bac2e85039e403db1fca78c6e088c0ae737aabab60001b620003cb60201b60201c565b6200020b7fe446a68e39c22433d2b03f4b9d83ef161b2a7000214b08c8b19a88bc626211e060001b620003cb60201b60201c565b80600660006101000a81548173ffffffffffffffffffffffffffffffffffffffff021916908373ffffffffffffffffffffffffffffffffffffffff160217905550620002807f16684770a16709de4a3c1b2f8ad5d5c7934017cd2c7c5843557f6695687f338c60001b620003cb60201b60201c565b620002b47fd4db156c2c47d800c52a045cac668f512568cc72da43376cf5b162a7046584bd60001b620003cb60201b60201c565b81600760006101000a81548173ffffffffffffffffffffffffffffffffffffffff021916908373ffffffffffffffffffffffffffffffffffffffff1602179055505050505062000442565b600033905090565b60008060009054906101000a900473ffffffffffffffffffffffffffffffffffffffff169050816000806101000a81548173ffffffffffffffffffffffffffffffffffffffff021916908373ffffffffffffffffffffffffffffffffffffffff1602179055508173ffffffffffffffffffffffffffffffffffffffff168173ffffffffffffffffffffffffffffffffffffffff167f8be0079c531659141344cd1fd0a4f28419497f9722a3daafe3b4186f6b6457e060405160405180910390a35050565b50565b60008151905060018060a01b0381168114620003e957600080fd5b919050565b600080600080608085870312156200040557600080fd5b845193506200041760208601620003ce565b92506200042760408601620003ce565b91506200043760608601620003ce565b905092959194509250565b6117ba80620004526000396000f3fe6080604052600436106100dc5760003560e01c80638da5cb5b1161007f578063a87430ba11610059578063a87430ba1461026a578063f0ea4bfc146102a7578063f2fde38b146102d2578063fe5a7a11146102fb576100dc565b80638da5cb5b146101f8578063925b7cb614610223578063a035b1fe1461023f576100dc565b806344761aa9116100bb57806344761aa9146101625780634fe3ce6a1461018d57806351cff8d9146101b8578063715018a6146101e1576100dc565b806279305a146100e157806305a9aeca1461010c5780630b29f7fd14610137575b600080fd5b3480156100ed57600080fd5b506100f6610317565b6040516101039190611347565b60405180910390f35b34801561011857600080fd5b5061012161031d565b60405161012e9190611358565b60405180910390f35b34801561014357600080fd5b5061014c610343565b6040516101599190611347565b60405180910390f35b34801561016e57600080fd5b50610177610349565b6040516101849190611371565b60405180910390f35b34801561019957600080fd5b506101a261036f565b6040516101af919061138a565b60405180910390f35b3480156101c457600080fd5b506101df60048036038101906101da91906113a3565b610395565b005b3480156101ed57600080fd5b506101f661046b565b005b34801561020457600080fd5b5061020d61047f565b60405161021a91906113d5565b60405180910390f35b61023d60048036038101906102389190611494565b6104a8565b005b34801561024b57600080fd5b50610254610c81565b6040516102619190611347565b60405180910390f35b34801561027657600080fd5b50610291600480360381019061028c91906113a3565b610c87565b60405161029e9190611347565b60405180910390f35b3480156102b357600080fd5b506102bc610c9f565b6040516102c99190611347565b60405180910390f35b3480156102de57600080fd5b506102f960048036038101906102f491906113a3565b610ca5565b005b610315600480360381019061031091906114db565b610d29565b005b60045481565b600560009054906101000a900473ffffffffffffffffffffffffffffffffffffffff1681565b60035481565b600660009054906101000a900473ffffffffffffffffffffffffffffffffffffffff1681565b600760009054906101000a900473ffffffffffffffffffffffffffffffffffffffff1681565b61039d6111fa565b6103c97fa1477beef4f738491e9a0b94c2d1a2208d5390d7dc98958fd410d8dd4a2b121460001b611278565b6103f57fcc4080a5150921bed56255a8095f42e53b8a4ef737fd9f5c496057435fe2f29960001b611278565b6104217f4580516b9c0556a6d334dcb3940362bedee565cb277a4745e5260b20154794c660001b611278565b8073ffffffffffffffffffffffffffffffffffffffff166108fc479081150290604051600060405180830381858888f19350505050158015610467573d6000803e3d6000fd5b5050565b6104736111fa565b61047d600061127b565b565b60008060009054906101000a900473ffffffffffffffffffffffffffffffffffffffff16905090565b6104d47f5559be8e2207bb0454d8c90fbb258a74822ebe3884707faf0bce21d4bad0bee360001b611278565b6105007fbb84a533e20ee6b35b21741882e3d797284cee995f7522247f2519a8690d123660001b611278565b61052c7fabc1e718b5c8ef5345afadc765034f16c050323b9ee93671be3921f2e72c212060001b611278565b60008160015461053c919061152f565b905061056a7fdf9977f1d370ee26a03c9436ea7356de0a4b31299e553dd248a2b58ef32c2fc560001b611278565b6105967f79bd3b286c1e4762168af777a5f154add5c1198ee2711fa3a13e3f9dbb99845060001b611278565b6105c27fa3e837a04d0b9da0b5b929a2a393e42ff034e5f95f80e1ff71d5b5e21806ee9760001b611278565b803414610604576040517f08c379a00000000000000000000000000000000000000000000000000000000081526004016105fb90611555565b60405180910390fd5b6106307f14924dc4b25c83980a4d369a6ff29307730a7c7fc8f3fa41e4e59dc5514ffc6860001b611278565b61065c7f3d8792ab1b19d3c8cee7afd4066412b6fbcacc7f07ace410dd77cf2795dac2e860001b611278565b6106887f2cee293600a829500d641595ec84005bc237731710716b3e1920176c90a86e5560001b611278565b60018214156107a9576106bd7f5989c726eeee14e4cd390d7dcb2d31306e77a6b53041f4cbef018bd3ea8481d760001b611278565b6106e97fa5746a92ee59500f06dd6db99bf575e63507324bb48be68231b75d37f73b7e5c60001b611278565b6107157fa682256d5da2d4d6e4f03099f15f89b5f95f8519bb2e5448b9f51386db5c2ac560001b611278565b600560009054906101000a900473ffffffffffffffffffffffffffffffffffffffff1673ffffffffffffffffffffffffffffffffffffffff16633d02d0c933856040518363ffffffff1660e01b815260040161077292919061160e565b600060405180830381600087803b15801561078c57600080fd5b505af11580156107a0573d6000803e3d6000fd5b50505050610934565b6107d57f5f74624fec1cfccdbc59dd75993ea8dd1b03d72ccad6434e0361ec341397213060001b611278565b6108017f8a79cb6305eaa06dd50893dfef379936a6860acd64be2f801827d75da01fd78860001b611278565b61082d7fe0a41bdc6107342eef3497ba6bf820238a12e3c31f70c2e4bb1081d008014aa960001b611278565b60005b82811015610932576108647f7741856ccd4f20f6aecd7dcd93a21ee806d12ce1436cbe3642dc6b73c24ebf7f60001b611278565b6108907f2d2e945151fdf77008f22408877ca3b7fc7f2525d2c075699c6ec2b5e0a1721560001b611278565b600560009054906101000a900473ffffffffffffffffffffffffffffffffffffffff1673ffffffffffffffffffffffffffffffffffffffff16633d02d0c933866040518363ffffffff1660e01b81526004016108ed92919061160e565b600060405180830381600087803b15801561090757600080fd5b505af115801561091b573d6000803e3d6000fd5b50505050808061092a90611638565b915050610830565b505b6109607f6f3b4887610b7d152dc095388e8caafa38e75e4f690058d974b2210c4fa2b00a60001b611278565b61098c7f2b40039edc8755fe6ab14372d4be4032aea2c66c221f56cf61c83643b60e4dc660001b611278565b816004600082825461099e9190611657565b925050819055506109d17f5f4b7374a5bebab6689cd269aa889f12c77e30978b864e9690c57ad55a7e6a6960001b611278565b6109fd7f9d64349336305a09c22cd160721c7895f1b0501578b317dfb274b7714de7df0260001b611278565b6000600260003373ffffffffffffffffffffffffffffffffffffffff1673ffffffffffffffffffffffffffffffffffffffff168152602001908152602001600020541415610aba57610a717f56285ffba6b6084f01740ef90e87606fba35d6c485edf1d5634179aa60c8af7060001b611278565b610a9d7fac452a86874be78bb08536b6f20ca7138edb5caab7b4d27e979e9498f698aadf60001b611278565b60036000815480929190610ab090611638565b9190505550610ae7565b610ae67f4da56e2248e853b2dc5b9a8fdda1504b1e543534ac5083f8778f07a35d263e3c60001b611278565b5b610b137f8ae0c12ecbf77c69d57f0aad74429c4445d774ee7f6177ba5e5d298cd6e8468460001b611278565b610b3f7f31d18399770e656c2a9fcaf863ea247d50e4810549617c912e9da87f9b32ff4c60001b611278565b81600260003373ffffffffffffffffffffffffffffffffffffffff1673ffffffffffffffffffffffffffffffffffffffff1681526020019081526020016000206000828254610b8e9190611657565b92505081905550610bc17f80ca8c0950532c866341ccc6fc4a597f78486c591200b8ce04ff40c9fb03323a60001b611278565b610bed7fb25c716f219d46a8c72437525edc04539f795b8bb85705d7bd01cf943c4ea41e60001b611278565b600660009054906101000a900473ffffffffffffffffffffffffffffffffffffffff1673ffffffffffffffffffffffffffffffffffffffff166379c6506833836040518363ffffffff1660e01b8152600401610c4a929190611676565b600060405180830381600087803b158015610c6457600080fd5b505af1158015610c78573d6000803e3d6000fd5b50505050505050565b60015481565b60026020528060005260406000206000915090505481565b60085481565b610cad6111fa565b600073ffffffffffffffffffffffffffffffffffffffff168173ffffffffffffffffffffffffffffffffffffffff161415610d1d576040517f08c379a0000000000000000000000000000000000000000000000000000000008152600401610d1490611696565b60405180910390fd5b610d268161127b565b50565b610d557fde22640463d2a8b22b5baeecc463546a7799b97a27e4f66be6431e6b5df4314a60001b611278565b610d817ff05d42804b66ad08530556f99af4ff378c935d185dca68f4261202881af7ad0f60001b611278565b610dad7fada45902ad5d5043005160aaaae28204add063301b74a32db956074ca4256a8760001b611278565b60006001600760009054906101000a900473ffffffffffffffffffffffffffffffffffffffff1673ffffffffffffffffffffffffffffffffffffffff166317d70f7c6040518163ffffffff1660e01b815260040160206040518083038186803b158015610e1957600080fd5b505afa158015610e2d573d6000803e3d6000fd5b505050506040513d601f19601f82011682018060405250810190610e5191906116fa565b610e5b9190611657565b9050610e897fa515248fcfd14f6474f10c3e87d984c9e63a77212e0bf6fec92b3586abda8af660001b611278565b610eb57f94d0d08fb41d6545ff63afd7e9d6a100c3af57aa3c3fe955322d28a649dc20de60001b611278565b600760009054906101000a900473ffffffffffffffffffffffffffffffffffffffff1673ffffffffffffffffffffffffffffffffffffffff1663dee374548284336040518463ffffffff1660e01b8152600401610f1493929190611716565b600060405180830381600087803b158015610f2e57600080fd5b505af1158015610f42573d6000803e3d6000fd5b50505050610f727f11269b5afa6e17d14bcd97b1914240378fdf1fd6ed4fa4807ae42c267f3259f060001b611278565b610f9e7f237c6e7f84dc90a8a1ba1382a53089907ad8cb1688acd2cbf05ad136ffe78a2e60001b611278565b3460086000828254610fb09190611657565b92505081905550610fe37fb672a07f72d3729180c3ed12bb091403b99e018e6a0ca4984ae4daad1190776d60001b611278565b61100f7f6917920a046ae89c9b63206a70c48ea4fa3e6cb427a5a6149789ae0c890fb72960001b611278565b60015460085410611185576110467fc9d79b835e44560558f25f19736fdd2c75e9f3baf99ee2acad368aaa7362159260001b611278565b6110727feb2979c50e20ed16ad13cdbedf843aa01085ab843cdca732bc912c79b74a942760001b611278565b61109e7ffe9d085546df71f3a06ee1fcdd1718527600b0e577f9b039a2acd00f19ff77c760001b611278565b600760009054906101000a900473ffffffffffffffffffffffffffffffffffffffff1673ffffffffffffffffffffffffffffffffffffffff16632004ffd96040518163ffffffff1660e01b8152600401600060405180830381600087803b15801561110857600080fd5b505af115801561111c573d6000803e3d6000fd5b5050505061114c7f33e7bf0da00feedd086f11acbb04eede8fb6b3c4574811ce34d4db3e288b276f60001b611278565b6111787fb21fd59ee99c4f5fe1284beb3f1a9f19f48d94dc56304068a3b6fba2fe48d15f60001b611278565b60006008819055506111b2565b6111b17f84be3f3c829c3966e895b135a5c76e0b072b2a6672e2ee05d8b3f61bf939adff60001b611278565b5b6111de7fd944f210fe47df60d1eec78e1a4241b9796b3aae4d0330783ca7c40ee1a11f3960001b611278565b600360008154809291906111f190611638565b91905055505050565b61120261133f565b73ffffffffffffffffffffffffffffffffffffffff1661122061047f565b73ffffffffffffffffffffffffffffffffffffffff1614611276576040517f08c379a000000000000000000000000000000000000000000000000000000000815260040161126d90611747565b60405180910390fd5b565b50565b60008060009054906101000a900473ffffffffffffffffffffffffffffffffffffffff169050816000806101000a81548173ffffffffffffffffffffffffffffffffffffffff021916908373ffffffffffffffffffffffffffffffffffffffff1602179055508173ffffffffffffffffffffffffffffffffffffffff168173ffffffffffffffffffffffffffffffffffffffff167f8be0079c531659141344cd1fd0a4f28419497f9722a3daafe3b4186f6b6457e060405160405180910390a35050565b600033905090565b600060208201905082825292915050565b600060208201905060018060a01b038316825292915050565b600060208201905060018060a01b038316825292915050565b600060208201905060018060a01b038316825292915050565b6000602082840312156113b557600080fd5b813560018060a01b03811681146113cb57600080fd5b8091505092915050565b600060208201905060018060a01b038316825292915050565b634e487b7160e01b600052604160045260246000fd5b600082601f83011261141557600080fd5b813567ffffffffffffffff80821115611431576114306113ee565b5b601f1960405181603f83601f870116011681019150808210838311171561145b5761145a6113ee565b5b8160405283815286602085880101111561147457600080fd5b836020870160208301376000602085830101528094505050505092915050565b600080604083850312156114a757600080fd5b823567ffffffffffffffff8111156114be57600080fd5b6114ca85828601611404565b925050602083013590509250929050565b6000602082840312156114ed57600080fd5b813567ffffffffffffffff81111561150457600080fd5b61151084828501611404565b91505092915050565b634e487b7160e01b600052601160045260246000fd5b600081600019048311821515161561154a57611549611519565b5b828202905092915050565b60208152602260208201527f4e6f7420656e6f7567682066756e647320746f2063726561746520746865204e60408201527f465400000000000000000000000000000000000000000000000000000000000060608201526000608082019050919050565b6000815180845260005b818110156115e5576020808286010151818388010152506020810190506115c3565b818111156115f7576000602083870101525b506020601f19601f83011685010191505092915050565b60018060a01b038316815260406020820152600061162f60408301846115b9565b90509392505050565b6000801982141561164c5761164b611519565b5b600182019050919050565b6000821982111561166b5761166a611519565b5b828201905092915050565b600060408201905060018060a01b03841682528260208301529392505050565b60208152602660208201527f4f776e61626c653a206e6577206f776e657220697320746865207a65726f206160408201527f646472657373000000000000000000000000000000000000000000000000000060608201526000608082019050919050565b60006020828403121561170c57600080fd5b8151905092915050565b83815260606020820152600061172f60608301856115b9565b905060018060a01b0383166040830152949350505050565b602081526020808201527f4f776e61626c653a2063616c6c6572206973206e6f7420746865206f776e65726040820152600060608201905091905056fea2646970667358221220742f29c9a0ef3676d489ea1cb8338c9191ecd2d053911dbd8ea672a9ed38c35964736f6c63430008090033",
    "linkReferences": {},
    "deployedLinkReferences": {}
}