{
    "_format": "hh-sol-artifact-1",
    "contractName": "CryptoBuggy",
    "sourceName": "contracts/CryptoBuggy.sol",
    "abi": [
        {
            "inputs": [
                {
                    "internalType": "uint256",
                    "name": "_price",
                    "type": "uint256"
                },
                {
                    "internalType": "address",
                    "name": "_nft",
                    "type": "address"
                },
                {
                    "internalType": "address",
                    "name": "_buggyToken",
                    "type": "address"
                }
            ],
            "stateMutability": "nonpayable",
            "type": "constructor"
        },
        {
            "inputs": [
                {
                    "internalType": "string",
                    "name": "_signature",
                    "type": "string"
                }
            ],
            "name": "addFund",
            "outputs": [],
            "stateMutability": "payable",
            "type": "function"
        },
        {
            "inputs": [],
            "name": "buggyToken",
            "outputs": [
                {
                    "internalType": "contract BuggyToken",
                    "name": "",
                    "type": "address"
                }
            ],
            "stateMutability": "view",
            "type": "function"
        },
        {
            "inputs": [],
            "name": "nft",
            "outputs": [
                {
                    "internalType": "contract NFT",
                    "name": "",
                    "type": "address"
                }
            ],
            "stateMutability": "view",
            "type": "function"
        },
        {
            "inputs": [],
            "name": "price",
            "outputs": [
                {
                    "internalType": "uint256",
                    "name": "",
                    "type": "uint256"
                }
            ],
            "stateMutability": "view",
            "type": "function"
        }
    ],
    "bytecode": "0x608060405234801561001057600080fd5b5060405161043838038061043883398101604081905261002f91610082565b600092909255600180546001600160a01b039283166001600160a01b031991821617909155600280549290931691161790556100be565b80516001600160a01b038116811461007d57600080fd5b919050565b60008060006060848603121561009757600080fd5b835192506100a760208501610066565b91506100b560408501610066565b90509250925092565b61036b806100cd6000396000f3fe60806040526004361061003f5760003560e01c80632fc086f01461004457806344761aa91461005957806347ccca0214610096578063a035b1fe146100b6575b600080fd5b61005761005236600461021f565b6100da565b005b34801561006557600080fd5b50600254610079906001600160a01b031681565b6040516001600160a01b0390911681526020015b60405180910390f35b3480156100a257600080fd5b50600154610079906001600160a01b031681565b3480156100c257600080fd5b506100cc60005481565b60405190815260200161008d565b600054341461013a5760405162461bcd60e51b815260206004820152602260248201527f4e6f7420656e6f7567682066756e647320746f2063726561746520746865204e604482015261119560f21b606482015260840160405180910390fd5b600154604051633d02d0c960e01b81526001600160a01b0390911690633d02d0c99061016c90339085906004016102d0565b600060405180830381600087803b15801561018657600080fd5b505af115801561019a573d6000803e3d6000fd5b5050600254600054604051630f38ca0d60e31b815233600482015260248101919091526001600160a01b0390911692506379c650689150604401600060405180830381600087803b1580156101ee57600080fd5b505af1158015610202573d6000803e3d6000fd5b5050505050565b634e487b7160e01b600052604160045260246000fd5b60006020828403121561023157600080fd5b813567ffffffffffffffff8082111561024957600080fd5b818401915084601f83011261025d57600080fd5b81358181111561026f5761026f610209565b604051601f8201601f19908116603f0116810190838211818310171561029757610297610209565b816040528281528760208487010111156102b057600080fd5b826020860160208301376000928101602001929092525095945050505050565b60018060a01b038316815260006020604081840152835180604085015260005b8181101561030c578581018301518582016060015282016102f0565b8181111561031e576000606083870101525b50601f01601f19169290920160600194935050505056fea2646970667358221220fd2ef83e9988a559a8d494410c0070126aab67b9ce70597b92833866515a237064736f6c63430008090033",
    "linkReferences": {},
    "deployedLinkReferences": {}
}