{
    "_format": "hh-sol-artifact-1",
    "contractName": "CryptoBuggy",
    "sourceName": "contracts/CryptoBuggy.sol",
    "abi": [
        {
            "inputs": [
                {
                    "internalType": "uint256",
                    "name": "_price",
                    "type": "uint256"
                },
                {
                    "internalType": "address",
                    "name": "_nft",
                    "type": "address"
                },
                {
                    "internalType": "address",
                    "name": "_buggyToken",
                    "type": "address"
                }
            ],
            "stateMutability": "nonpayable",
            "type": "constructor"
        },
        {
            "anonymous": false,
            "inputs": [
                {
                    "indexed": true,
                    "internalType": "address",
                    "name": "previousOwner",
                    "type": "address"
                },
                {
                    "indexed": true,
                    "internalType": "address",
                    "name": "newOwner",
                    "type": "address"
                }
            ],
            "name": "OwnershipTransferred",
            "type": "event"
        },
        {
            "inputs": [
                {
                    "internalType": "string",
                    "name": "_signature",
                    "type": "string"
                },
                {
                    "internalType": "uint256",
                    "name": "count",
                    "type": "uint256"
                }
            ],
            "name": "addFund",
            "outputs": [],
            "stateMutability": "payable",
            "type": "function"
        },
        {
            "inputs": [],
            "name": "boughtBuggy",
            "outputs": [
                {
                    "internalType": "uint256",
                    "name": "",
                    "type": "uint256"
                }
            ],
            "stateMutability": "view",
            "type": "function"
        },
        {
            "inputs": [],
            "name": "buggyNFT",
            "outputs": [
                {
                    "internalType": "contract BuggyNFT",
                    "name": "",
                    "type": "address"
                }
            ],
            "stateMutability": "view",
            "type": "function"
        },
        {
            "inputs": [],
            "name": "buggyToken",
            "outputs": [
                {
                    "internalType": "contract BuggyToken",
                    "name": "",
                    "type": "address"
                }
            ],
            "stateMutability": "view",
            "type": "function"
        },
        {
            "inputs": [],
            "name": "owner",
            "outputs": [
                {
                    "internalType": "address",
                    "name": "",
                    "type": "address"
                }
            ],
            "stateMutability": "view",
            "type": "function"
        },
        {
            "inputs": [],
            "name": "price",
            "outputs": [
                {
                    "internalType": "uint256",
                    "name": "",
                    "type": "uint256"
                }
            ],
            "stateMutability": "view",
            "type": "function"
        },
        {
            "inputs": [],
            "name": "renounceOwnership",
            "outputs": [],
            "stateMutability": "nonpayable",
            "type": "function"
        },
        {
            "inputs": [
                {
                    "internalType": "address",
                    "name": "newOwner",
                    "type": "address"
                }
            ],
            "name": "transferOwnership",
            "outputs": [],
            "stateMutability": "nonpayable",
            "type": "function"
        },
        {
            "inputs": [],
            "name": "uniqUsers",
            "outputs": [
                {
                    "internalType": "uint256",
                    "name": "",
                    "type": "uint256"
                }
            ],
            "stateMutability": "view",
            "type": "function"
        },
        {
            "inputs": [
                {
                    "internalType": "address",
                    "name": "",
                    "type": "address"
                }
            ],
            "name": "users",
            "outputs": [
                {
                    "internalType": "uint256",
                    "name": "",
                    "type": "uint256"
                }
            ],
            "stateMutability": "view",
            "type": "function"
        },
        {
            "inputs": [
                {
                    "internalType": "address",
                    "name": "_beneficiary",
                    "type": "address"
                }
            ],
            "name": "withdraw",
            "outputs": [],
            "stateMutability": "nonpayable",
            "type": "function"
        }
    ],
    "bytecode": "0x60806040523480156200001157600080fd5b506040516200191c3803806200191c8339818101604052810190620000379190620003c9565b620000576200004b6200025560201b60201c565b6200025d60201b60201c565b6200008b7f8cfd1245025d31baccbd25a7b411e0d2bcac02290683fad5113a75db2fd9c97560001b6200032160201b60201c565b620000bf7f6ba987773535be30e5c8f0fb29717020217e0899d5c5c91cd341f4d90620e58f60001b6200032160201b60201c565b620000f37f854974974703eef4fbd9869ed0e94f4294c69b10eb8c0317c54932f61eebf61760001b6200032160201b60201c565b826001819055506200012e7fb0731f692f05028aa1805f2c0cdd43e2abf95dbf3419935e104671340c51d51760001b6200032160201b60201c565b620001627f02e1a333df8de135281912b931aa6ca4c315190b46cdac332bde747c1aa9ae1660001b6200032160201b60201c565b81600560006101000a81548173ffffffffffffffffffffffffffffffffffffffff021916908373ffffffffffffffffffffffffffffffffffffffff160217905550620001d77ff4c7731da1336837abed05183ae8b05f2817183d534f5d2e152a3f320cd8e1c960001b6200032160201b60201c565b6200020b7f226c10c62949ac17555e72569e830a6e9f27c94e6403022cef2e316705464c5f60001b6200032160201b60201c565b80600660006101000a81548173ffffffffffffffffffffffffffffffffffffffff021916908373ffffffffffffffffffffffffffffffffffffffff16021790555050505062000425565b600033905090565b60008060009054906101000a900473ffffffffffffffffffffffffffffffffffffffff169050816000806101000a81548173ffffffffffffffffffffffffffffffffffffffff021916908373ffffffffffffffffffffffffffffffffffffffff1602179055508173ffffffffffffffffffffffffffffffffffffffff168173ffffffffffffffffffffffffffffffffffffffff167f8be0079c531659141344cd1fd0a4f28419497f9722a3daafe3b4186f6b6457e060405160405180910390a35050565b50565b600080fd5b6000819050919050565b6200033e8162000329565b81146200034a57600080fd5b50565b6000815190506200035e8162000333565b92915050565b600073ffffffffffffffffffffffffffffffffffffffff82169050919050565b6000620003918262000364565b9050919050565b620003a38162000384565b8114620003af57600080fd5b50565b600081519050620003c38162000398565b92915050565b600080600060608486031215620003e557620003e462000324565b5b6000620003f5868287016200034d565b93505060206200040886828701620003b2565b92505060406200041b86828701620003b2565b9150509250925092565b6114e780620004356000396000f3fe60806040526004361061009b5760003560e01c8063715018a611610064578063715018a6146101755780638da5cb5b1461018c578063925b7cb6146101b7578063a035b1fe146101d3578063a87430ba146101fe578063f2fde38b1461023b5761009b565b806279305a146100a057806305a9aeca146100cb5780630b29f7fd146100f657806344761aa91461012157806351cff8d91461014c575b600080fd5b3480156100ac57600080fd5b506100b5610264565b6040516100c29190610db0565b60405180910390f35b3480156100d757600080fd5b506100e061026a565b6040516100ed9190610e4a565b60405180910390f35b34801561010257600080fd5b5061010b610290565b6040516101189190610db0565b60405180910390f35b34801561012d57600080fd5b50610136610296565b6040516101439190610e86565b60405180910390f35b34801561015857600080fd5b50610173600480360381019061016e9190610ef3565b6102bc565b005b34801561018157600080fd5b5061018a610392565b005b34801561019857600080fd5b506101a16103a6565b6040516101ae9190610f2f565b60405180910390f35b6101d160048036038101906101cc91906110bc565b6103cf565b005b3480156101df57600080fd5b506101e8610ba8565b6040516101f59190610db0565b60405180910390f35b34801561020a57600080fd5b5061022560048036038101906102209190610ef3565b610bae565b6040516102329190610db0565b60405180910390f35b34801561024757600080fd5b50610262600480360381019061025d9190610ef3565b610bc6565b005b60045481565b600560009054906101000a900473ffffffffffffffffffffffffffffffffffffffff1681565b60035481565b600660009054906101000a900473ffffffffffffffffffffffffffffffffffffffff1681565b6102c4610c4a565b6102f07fd839732176a4225e9b74c8c84588c5381545692552e733f9f0d4ac187255834a60001b610cc8565b61031c7f604e794129dd2f968f45c1bba3a22c978315489518df87682b2c99768093257360001b610cc8565b6103487f3617734d8422935aba4e6779a6c9cae98e5417ed015745e74096d55a11facd1560001b610cc8565b8073ffffffffffffffffffffffffffffffffffffffff166108fc479081150290604051600060405180830381858888f1935050505015801561038e573d6000803e3d6000fd5b5050565b61039a610c4a565b6103a46000610ccb565b565b60008060009054906101000a900473ffffffffffffffffffffffffffffffffffffffff16905090565b6103fb7fbda39e568cf25562f31c77341f69413cf107926a3a24b7abd54afb674237ae6460001b610cc8565b6104277f800a835b61152e95dc0252cfd7168954a2eebaa565fa814563f86ea61d4ed1ff60001b610cc8565b6104537f4f45cc00e945ef3d54e25883fb56aa10cae12d8a9aa6bd187d5786f10de7470460001b610cc8565b6000816001546104639190611147565b90506104917f3c8ea0438814620f598cca202634414fcfcf52a1c2c989f650cf570e9a6ed57c60001b610cc8565b6104bd7f0118d9a35c01e77b3f14a8cc91475c3c2165ec628e75a10fafba0e5f93404ce560001b610cc8565b6104e97f2912ca44884acb2495c183148bf2af1506efbe995f201c1e0f688ed51a20fee260001b610cc8565b80341461052b576040517f08c379a000000000000000000000000000000000000000000000000000000000815260040161052290611224565b60405180910390fd5b6105577ff736a49e8cfa8f93bf0e813b270d323d2e9db4e00f9d8592a539e40aece2d33660001b610cc8565b6105837fa10724c196b1c5ef97ba0bfc29f494d18756b9bc8d49ce3f1c4e645278f5013460001b610cc8565b6105af7f9aaf3049f9898c297e1e0e3a9b1e56a35da3c72d07adf38e627535eafa68a78960001b610cc8565b60018214156106d0576105e47f1b9ec3d757947651c1b97978a4fd4f36fe13054c793446e35f0da2d592ed9a0660001b610cc8565b6106107ff6109b43895a0bfaa2aaf7cefdaa4a0a2e40c2def4ec1fb61bb6091cb9521a5560001b610cc8565b61063c7f2a10223d5f2f10b58898719dcfa056db946d5ae2c110b872c61fa3e2f96aa75d60001b610cc8565b600560009054906101000a900473ffffffffffffffffffffffffffffffffffffffff1673ffffffffffffffffffffffffffffffffffffffff16633d02d0c933856040518363ffffffff1660e01b81526004016106999291906112bb565b600060405180830381600087803b1580156106b357600080fd5b505af11580156106c7573d6000803e3d6000fd5b5050505061085b565b6106fc7f85bbf53b521c48dff8cbcf953b3e412db738e5f524ef577ea7f3f1fd605efe7660001b610cc8565b6107287f39fdf34ee60ea66e89ff201c8dd12b4ba6e0d789b580e389202648e5b4fe065860001b610cc8565b6107547fd251325b405597029a9607a0efffd7a69a7537eeb4b367dfeae5bd22dcb28a6260001b610cc8565b60005b828110156108595761078b7f84fb6a09bf42966e6d6ada7721c78ac6081bfc2c1c51de1858b930b57f15bc9060001b610cc8565b6107b77f13b4536dba12cdbbe3680973dd7c4d7c133a236c72139166a93be4206df187cd60001b610cc8565b600560009054906101000a900473ffffffffffffffffffffffffffffffffffffffff1673ffffffffffffffffffffffffffffffffffffffff16633d02d0c933866040518363ffffffff1660e01b81526004016108149291906112bb565b600060405180830381600087803b15801561082e57600080fd5b505af1158015610842573d6000803e3d6000fd5b505050508080610851906112eb565b915050610757565b505b6108877f5e6018cd56ce8eb05eadc9077d95ad7be51c7d34c240119b4a32c07c30503b3b60001b610cc8565b6108b37f82b49fb7424be177b78ad24e384295aea58e70be4d3b238b46995488c0c1f04b60001b610cc8565b81600460008282546108c59190611334565b925050819055506108f87f73e65e451dd9b75374353cf2a7cfa00532c117b155bf251ced1086433b1cf7f460001b610cc8565b6109247f1262646a65321d6cd5634a170308a9956837994ff2c7b5fec9fc8ae2ededee9c60001b610cc8565b6000600260003373ffffffffffffffffffffffffffffffffffffffff1673ffffffffffffffffffffffffffffffffffffffff1681526020019081526020016000205414156109e1576109987ff27fa2dd987d5f7352237feefc3063a464474ba662d0b116b8f63bfebae69b8660001b610cc8565b6109c47f739571af604066b886bff4a371ca2604efde9d5609cae09b83f3ab15156704df60001b610cc8565b600360008154809291906109d7906112eb565b9190505550610a0e565b610a0d7f7798b5fe1985aee7744e40dd9a9d3ad7b7938fc82f531f9d563992ae891b66bf60001b610cc8565b5b610a3a7fc2ee9b4f1d7ccc96af29b385fd95b81863f9090a705977529ac08f5552616f2360001b610cc8565b610a667fb83939e76342ed3064ddb4674212076ac76ea726b4f3a6edf6e2334408a9f77060001b610cc8565b81600260003373ffffffffffffffffffffffffffffffffffffffff1673ffffffffffffffffffffffffffffffffffffffff1681526020019081526020016000206000828254610ab59190611334565b92505081905550610ae87f625ff681296a149a02523027cd5c24ca4a536387ff2e338c3d32ae52e770dd8f60001b610cc8565b610b147f4d8f7794bb972d2439dcd6ea0dcd0db3afe06a09667f1ce4ae96c7b33522c0dc60001b610cc8565b600660009054906101000a900473ffffffffffffffffffffffffffffffffffffffff1673ffffffffffffffffffffffffffffffffffffffff166379c6506833836040518363ffffffff1660e01b8152600401610b7192919061138a565b600060405180830381600087803b158015610b8b57600080fd5b505af1158015610b9f573d6000803e3d6000fd5b50505050505050565b60015481565b60026020528060005260406000206000915090505481565b610bce610c4a565b600073ffffffffffffffffffffffffffffffffffffffff168173ffffffffffffffffffffffffffffffffffffffff161415610c3e576040517f08c379a0000000000000000000000000000000000000000000000000000000008152600401610c3590611425565b60405180910390fd5b610c4781610ccb565b50565b610c52610d8f565b73ffffffffffffffffffffffffffffffffffffffff16610c706103a6565b73ffffffffffffffffffffffffffffffffffffffff1614610cc6576040517f08c379a0000000000000000000000000000000000000000000000000000000008152600401610cbd90611491565b60405180910390fd5b565b50565b60008060009054906101000a900473ffffffffffffffffffffffffffffffffffffffff169050816000806101000a81548173ffffffffffffffffffffffffffffffffffffffff021916908373ffffffffffffffffffffffffffffffffffffffff1602179055508173ffffffffffffffffffffffffffffffffffffffff168173ffffffffffffffffffffffffffffffffffffffff167f8be0079c531659141344cd1fd0a4f28419497f9722a3daafe3b4186f6b6457e060405160405180910390a35050565b600033905090565b6000819050919050565b610daa81610d97565b82525050565b6000602082019050610dc56000830184610da1565b92915050565b600073ffffffffffffffffffffffffffffffffffffffff82169050919050565b6000819050919050565b6000610e10610e0b610e0684610dcb565b610deb565b610dcb565b9050919050565b6000610e2282610df5565b9050919050565b6000610e3482610e17565b9050919050565b610e4481610e29565b82525050565b6000602082019050610e5f6000830184610e3b565b92915050565b6000610e7082610e17565b9050919050565b610e8081610e65565b82525050565b6000602082019050610e9b6000830184610e77565b92915050565b6000604051905090565b600080fd5b600080fd5b6000610ec082610dcb565b9050919050565b610ed081610eb5565b8114610edb57600080fd5b50565b600081359050610eed81610ec7565b92915050565b600060208284031215610f0957610f08610eab565b5b6000610f1784828501610ede565b91505092915050565b610f2981610eb5565b82525050565b6000602082019050610f446000830184610f20565b92915050565b600080fd5b600080fd5b6000601f19601f8301169050919050565b7f4e487b7100000000000000000000000000000000000000000000000000000000600052604160045260246000fd5b610f9d82610f54565b810181811067ffffffffffffffff82111715610fbc57610fbb610f65565b5b80604052505050565b6000610fcf610ea1565b9050610fdb8282610f94565b919050565b600067ffffffffffffffff821115610ffb57610ffa610f65565b5b61100482610f54565b9050602081019050919050565b82818337600083830152505050565b600061103361102e84610fe0565b610fc5565b90508281526020810184848401111561104f5761104e610f4f565b5b61105a848285611011565b509392505050565b600082601f83011261107757611076610f4a565b5b8135611087848260208601611020565b91505092915050565b61109981610d97565b81146110a457600080fd5b50565b6000813590506110b681611090565b92915050565b600080604083850312156110d3576110d2610eab565b5b600083013567ffffffffffffffff8111156110f1576110f0610eb0565b5b6110fd85828601611062565b925050602061110e858286016110a7565b9150509250929050565b7f4e487b7100000000000000000000000000000000000000000000000000000000600052601160045260246000fd5b600061115282610d97565b915061115d83610d97565b9250817fffffffffffffffffffffffffffffffffffffffffffffffffffffffffffffffff048311821515161561119657611195611118565b5b828202905092915050565b600082825260208201905092915050565b7f4e6f7420656e6f7567682066756e647320746f2063726561746520746865204e60008201527f4654000000000000000000000000000000000000000000000000000000000000602082015250565b600061120e6022836111a1565b9150611219826111b2565b604082019050919050565b6000602082019050818103600083015261123d81611201565b9050919050565b600081519050919050565b60005b8381101561126d578082015181840152602081019050611252565b8381111561127c576000848401525b50505050565b600061128d82611244565b61129781856111a1565b93506112a781856020860161124f565b6112b081610f54565b840191505092915050565b60006040820190506112d06000830185610f20565b81810360208301526112e28184611282565b90509392505050565b60006112f682610d97565b91507fffffffffffffffffffffffffffffffffffffffffffffffffffffffffffffffff82141561132957611328611118565b5b600182019050919050565b600061133f82610d97565b915061134a83610d97565b9250827fffffffffffffffffffffffffffffffffffffffffffffffffffffffffffffffff0382111561137f5761137e611118565b5b828201905092915050565b600060408201905061139f6000830185610f20565b6113ac6020830184610da1565b9392505050565b7f4f776e61626c653a206e6577206f776e657220697320746865207a65726f206160008201527f6464726573730000000000000000000000000000000000000000000000000000602082015250565b600061140f6026836111a1565b915061141a826113b3565b604082019050919050565b6000602082019050818103600083015261143e81611402565b9050919050565b7f4f776e61626c653a2063616c6c6572206973206e6f7420746865206f776e6572600082015250565b600061147b6020836111a1565b915061148682611445565b602082019050919050565b600060208201905081810360008301526114aa8161146e565b905091905056fea2646970667358221220bcf89ba1cb4ec4876b0472d728fcbb55e798eeaf2e300fb4c976e81c731e628864736f6c63430008090033",
    "linkReferences": {},
    "deployedLinkReferences": {}
}