{
    "_format": "hh-sol-artifact-1",
    "contractName": "CryptoBuggy",
    "sourceName": "contracts/CryptoBuggy.sol",
    "abi": [
        {
            "inputs": [
                {
                    "internalType": "uint256",
                    "name": "_price",
                    "type": "uint256"
                },
                {
                    "internalType": "address",
                    "name": "_nft",
                    "type": "address"
                }
            ],
            "stateMutability": "nonpayable",
            "type": "constructor"
        },
        {
            "inputs": [
                {
                    "internalType": "string",
                    "name": "_signature",
                    "type": "string"
                }
            ],
            "name": "addFund",
            "outputs": [],
            "stateMutability": "payable",
            "type": "function"
        },
        {
            "inputs": [],
            "name": "nft",
            "outputs": [
                {
                    "internalType": "contract NFT",
                    "name": "",
                    "type": "address"
                }
            ],
            "stateMutability": "view",
            "type": "function"
        },
        {
            "inputs": [],
            "name": "price",
            "outputs": [
                {
                    "internalType": "uint256",
                    "name": "",
                    "type": "uint256"
                }
            ],
            "stateMutability": "view",
            "type": "function"
        }
    ],
    "bytecode": "0x608060405234801561001057600080fd5b506040516103bb3803806103bb83398101604081905261002f9161006a565b61004182670de0b6b3a76400006100a7565b600055600180546001600160a01b0319166001600160a01b0392909216919091179055506100d4565b6000806040838503121561007d57600080fd5b825160208401519092506001600160a01b038116811461009c57600080fd5b809150509250929050565b60008160001904831182151516156100cf57634e487b7160e01b600052601160045260246000fd5b500290565b6102d8806100e36000396000f3fe6080604052600436106100345760003560e01c80632fc086f01461003957806347ccca021461004e578063a035b1fe1461008b575b600080fd5b61004c61004736600461018c565b6100af565b005b34801561005a57600080fd5b5060015461006e906001600160a01b031681565b6040516001600160a01b0390911681526020015b60405180910390f35b34801561009757600080fd5b506100a160005481565b604051908152602001610082565b600054341461010f5760405162461bcd60e51b815260206004820152602260248201527f4e6f7420656e6f7567682066756e647320746f2063726561746520746865204e604482015261119560f21b606482015260840160405180910390fd5b600154604051633d02d0c960e01b81526001600160a01b0390911690633d02d0c990610141903390859060040161023d565b600060405180830381600087803b15801561015b57600080fd5b505af115801561016f573d6000803e3d6000fd5b5050505050565b634e487b7160e01b600052604160045260246000fd5b60006020828403121561019e57600080fd5b813567ffffffffffffffff808211156101b657600080fd5b818401915084601f8301126101ca57600080fd5b8135818111156101dc576101dc610176565b604051601f8201601f19908116603f0116810190838211818310171561020457610204610176565b8160405282815287602084870101111561021d57600080fd5b826020860160208301376000928101602001929092525095945050505050565b60018060a01b038316815260006020604081840152835180604085015260005b818110156102795785810183015185820160600152820161025d565b8181111561028b576000606083870101525b50601f01601f19169290920160600194935050505056fea264697066735822122079166cf72562e19368b351ed9e85e1dcfe68dd9332c35282ec81d928397f826764736f6c63430008090033",
    "linkReferences": {},
    "deployedLinkReferences": {}
}