{
    "contractName": "NFT",
    "abi": [
        {
            "inputs": [
                {
                    "internalType": "string",
                    "name": "name",
                    "type": "string"
                },
                {
                    "internalType": "string",
                    "name": "symbol",
                    "type": "string"
                },
                {
                    "internalType": "address",
                    "name": "_minter",
                    "type": "address"
                }
            ],
            "stateMutability": "nonpayable",
            "type": "constructor"
        },
        {
            "anonymous": false,
            "inputs": [
                {
                    "indexed": true,
                    "internalType": "address",
                    "name": "owner",
                    "type": "address"
                },
                {
                    "indexed": true,
                    "internalType": "address",
                    "name": "approved",
                    "type": "address"
                },
                {
                    "indexed": true,
                    "internalType": "uint256",
                    "name": "tokenId",
                    "type": "uint256"
                }
            ],
            "name": "Approval",
            "type": "event"
        },
        {
            "anonymous": false,
            "inputs": [
                {
                    "indexed": true,
                    "internalType": "address",
                    "name": "owner",
                    "type": "address"
                },
                {
                    "indexed": true,
                    "internalType": "address",
                    "name": "operator",
                    "type": "address"
                },
                {
                    "indexed": false,
                    "internalType": "bool",
                    "name": "approved",
                    "type": "bool"
                }
            ],
            "name": "ApprovalForAll",
            "type": "event"
        },
        {
            "anonymous": false,
            "inputs": [
                {
                    "indexed": true,
                    "internalType": "address",
                    "name": "previousOwner",
                    "type": "address"
                },
                {
                    "indexed": true,
                    "internalType": "address",
                    "name": "newOwner",
                    "type": "address"
                }
            ],
            "name": "OwnershipTransferred",
            "type": "event"
        },
        {
            "anonymous": false,
            "inputs": [
                {
                    "indexed": true,
                    "internalType": "address",
                    "name": "from",
                    "type": "address"
                },
                {
                    "indexed": true,
                    "internalType": "address",
                    "name": "to",
                    "type": "address"
                },
                {
                    "indexed": true,
                    "internalType": "uint256",
                    "name": "tokenId",
                    "type": "uint256"
                }
            ],
            "name": "Transfer",
            "type": "event"
        },
        {
            "inputs": [
                {
                    "internalType": "address",
                    "name": "to",
                    "type": "address"
                },
                {
                    "internalType": "uint256",
                    "name": "tokenId",
                    "type": "uint256"
                }
            ],
            "name": "approve",
            "outputs": [],
            "stateMutability": "nonpayable",
            "type": "function"
        },
        {
            "inputs": [
                {
                    "internalType": "address",
                    "name": "owner",
                    "type": "address"
                }
            ],
            "name": "balanceOf",
            "outputs": [
                {
                    "internalType": "uint256",
                    "name": "",
                    "type": "uint256"
                }
            ],
            "stateMutability": "view",
            "type": "function"
        },
        {
            "inputs": [
                {
                    "internalType": "uint256",
                    "name": "tokenId",
                    "type": "uint256"
                }
            ],
            "name": "getApproved",
            "outputs": [
                {
                    "internalType": "address",
                    "name": "",
                    "type": "address"
                }
            ],
            "stateMutability": "view",
            "type": "function"
        },
        {
            "inputs": [
                {
                    "internalType": "address",
                    "name": "owner",
                    "type": "address"
                },
                {
                    "internalType": "address",
                    "name": "operator",
                    "type": "address"
                }
            ],
            "name": "isApprovedForAll",
            "outputs": [
                {
                    "internalType": "bool",
                    "name": "",
                    "type": "bool"
                }
            ],
            "stateMutability": "view",
            "type": "function"
        },
        {
            "inputs": [
                {
                    "internalType": "address",
                    "name": "sponsor",
                    "type": "address"
                },
                {
                    "internalType": "string",
                    "name": "signature",
                    "type": "string"
                }
            ],
            "name": "mintToken",
            "outputs": [],
            "stateMutability": "nonpayable",
            "type": "function"
        },
        {
            "inputs": [],
            "name": "minter",
            "outputs": [
                {
                    "internalType": "address",
                    "name": "",
                    "type": "address"
                }
            ],
            "stateMutability": "view",
            "type": "function"
        },
        {
            "inputs": [],
            "name": "name",
            "outputs": [
                {
                    "internalType": "string",
                    "name": "",
                    "type": "string"
                }
            ],
            "stateMutability": "view",
            "type": "function"
        },
        {
            "inputs": [],
            "name": "owner",
            "outputs": [
                {
                    "internalType": "address",
                    "name": "",
                    "type": "address"
                }
            ],
            "stateMutability": "view",
            "type": "function"
        },
        {
            "inputs": [
                {
                    "internalType": "uint256",
                    "name": "tokenId",
                    "type": "uint256"
                }
            ],
            "name": "ownerOf",
            "outputs": [
                {
                    "internalType": "address",
                    "name": "",
                    "type": "address"
                }
            ],
            "stateMutability": "view",
            "type": "function"
        },
        {
            "inputs": [
                {
                    "internalType": "uint256",
                    "name": "",
                    "type": "uint256"
                }
            ],
            "name": "ownershipRecord",
            "outputs": [
                {
                    "internalType": "string",
                    "name": "",
                    "type": "string"
                }
            ],
            "stateMutability": "view",
            "type": "function"
        },
        {
            "inputs": [],
            "name": "renounceOwnership",
            "outputs": [],
            "stateMutability": "nonpayable",
            "type": "function"
        },
        {
            "inputs": [
                {
                    "internalType": "address",
                    "name": "from",
                    "type": "address"
                },
                {
                    "internalType": "address",
                    "name": "to",
                    "type": "address"
                },
                {
                    "internalType": "uint256",
                    "name": "tokenId",
                    "type": "uint256"
                }
            ],
            "name": "safeTransferFrom",
            "outputs": [],
            "stateMutability": "nonpayable",
            "type": "function"
        },
        {
            "inputs": [
                {
                    "internalType": "address",
                    "name": "from",
                    "type": "address"
                },
                {
                    "internalType": "address",
                    "name": "to",
                    "type": "address"
                },
                {
                    "internalType": "uint256",
                    "name": "tokenId",
                    "type": "uint256"
                },
                {
                    "internalType": "bytes",
                    "name": "data",
                    "type": "bytes"
                }
            ],
            "name": "safeTransferFrom",
            "outputs": [],
            "stateMutability": "nonpayable",
            "type": "function"
        },
        {
            "inputs": [
                {
                    "internalType": "address",
                    "name": "operator",
                    "type": "address"
                },
                {
                    "internalType": "bool",
                    "name": "approved",
                    "type": "bool"
                }
            ],
            "name": "setApprovalForAll",
            "outputs": [],
            "stateMutability": "nonpayable",
            "type": "function"
        },
        {
            "inputs": [
                {
                    "internalType": "address",
                    "name": "_minter",
                    "type": "address"
                }
            ],
            "name": "setMinter",
            "outputs": [],
            "stateMutability": "nonpayable",
            "type": "function"
        },
        {
            "inputs": [
                {
                    "internalType": "bytes4",
                    "name": "interfaceId",
                    "type": "bytes4"
                }
            ],
            "name": "supportsInterface",
            "outputs": [
                {
                    "internalType": "bool",
                    "name": "",
                    "type": "bool"
                }
            ],
            "stateMutability": "view",
            "type": "function"
        },
        {
            "inputs": [],
            "name": "symbol",
            "outputs": [
                {
                    "internalType": "string",
                    "name": "",
                    "type": "string"
                }
            ],
            "stateMutability": "view",
            "type": "function"
        },
        {
            "inputs": [],
            "name": "tokenId",
            "outputs": [
                {
                    "internalType": "uint256",
                    "name": "",
                    "type": "uint256"
                }
            ],
            "stateMutability": "view",
            "type": "function"
        },
        {
            "inputs": [
                {
                    "internalType": "uint256",
                    "name": "tokenId",
                    "type": "uint256"
                }
            ],
            "name": "tokenURI",
            "outputs": [
                {
                    "internalType": "string",
                    "name": "",
                    "type": "string"
                }
            ],
            "stateMutability": "view",
            "type": "function"
        },
        {
            "inputs": [
                {
                    "internalType": "address",
                    "name": "from",
                    "type": "address"
                },
                {
                    "internalType": "address",
                    "name": "to",
                    "type": "address"
                },
                {
                    "internalType": "uint256",
                    "name": "tokenId",
                    "type": "uint256"
                }
            ],
            "name": "transferFrom",
            "outputs": [],
            "stateMutability": "nonpayable",
            "type": "function"
        },
        {
            "inputs": [
                {
                    "internalType": "address",
                    "name": "newOwner",
                    "type": "address"
                }
            ],
            "name": "transferOwnership",
            "outputs": [],
            "stateMutability": "nonpayable",
            "type": "function"
        }
    ],
    "bytecode": "60806040523480156200001157600080fd5b5060405162001a3b38038062001a3b833981016040819052620000349162000252565b8251839083906200004d906000906020850190620000df565b50805162000063906001906020840190620000df565b505050620000806200007a6200008960201b60201c565b6200008d565b5050506200031c565b3390565b600680546001600160a01b038381166001600160a01b0319831681179093556040519116919082907f8be0079c531659141344cd1fd0a4f28419497f9722a3daafe3b4186f6b6457e090600090a35050565b828054620000ed90620002df565b90600052602060002090601f0160209004810192826200011157600085556200015c565b82601f106200012c57805160ff19168380011785556200015c565b828001600101855582156200015c579182015b828111156200015c5782518255916020019190600101906200013f565b506200016a9291506200016e565b5090565b5b808211156200016a57600081556001016200016f565b634e487b7160e01b600052604160045260246000fd5b600082601f830112620001ad57600080fd5b81516001600160401b0380821115620001ca57620001ca62000185565b604051601f8301601f19908116603f01168101908282118183101715620001f557620001f562000185565b816040528381526020925086838588010111156200021257600080fd5b600091505b8382101562000236578582018301518183018401529082019062000217565b83821115620002485760008385830101525b9695505050505050565b6000806000606084860312156200026857600080fd5b83516001600160401b03808211156200028057600080fd5b6200028e878388016200019b565b94506020860151915080821115620002a557600080fd5b50620002b4868287016200019b565b604086015190935090506001600160a01b0381168114620002d457600080fd5b809150509250925092565b600181811c90821680620002f457607f821691505b602082108114156200031657634e487b7160e01b600052602260045260246000fd5b50919050565b61170f806200032c6000396000f3fe608060405234801561001057600080fd5b50600436106101375760003560e01c80636352211e116100b8578063a22cb4651161007c578063a22cb46514610276578063b88d4fde14610289578063c87b56dd1461029c578063e985e9c5146102af578063f2fde38b146102eb578063fca3b5aa146102fe57600080fd5b80636352211e1461022f57806370a0823114610242578063715018a6146102555780638da5cb5b1461025d57806395d89b411461026e57600080fd5b806317d70f7c116100ff57806317d70f7c146101cc57806323b872dd146101e35780633d02d0c9146101f657806342842e0e146102095780635c6caf761461021c57600080fd5b806301ffc9a71461013c57806306fdde03146101645780630754617214610179578063081812fc146101a4578063095ea7b3146101b7575b600080fd5b61014f61014a3660046111aa565b610311565b60405190151581526020015b60405180910390f35b61016c610363565b60405161015b919061121f565b60075461018c906001600160a01b031681565b6040516001600160a01b03909116815260200161015b565b61018c6101b2366004611232565b6103f5565b6101ca6101c5366004611267565b61041c565b005b6101d560095481565b60405190815260200161015b565b6101ca6101f1366004611291565b610537565b6101ca610204366004611359565b610568565b6101ca610217366004611291565b6105c2565b61016c61022a366004611232565b6105dd565b61018c61023d366004611232565b610677565b6101d56102503660046113bb565b6106d7565b6101ca61075d565b6006546001600160a01b031661018c565b61016c610771565b6101ca6102843660046113d6565b610780565b6101ca610297366004611412565b61078b565b61016c6102aa366004611232565b6107c3565b61014f6102bd36600461148e565b6001600160a01b03918216600090815260056020908152604080832093909416825291909152205460ff1690565b6101ca6102f93660046113bb565b610837565b6101ca61030c3660046113bb565b6108b0565b60006001600160e01b031982166380ac58cd60e01b148061034257506001600160e01b03198216635b5e139f60e01b145b8061035d57506301ffc9a760e01b6001600160e01b03198316145b92915050565b606060008054610372906114c1565b80601f016020809104026020016040519081016040528092919081815260200182805461039e906114c1565b80156103eb5780601f106103c0576101008083540402835291602001916103eb565b820191906000526020600020905b8154815290600101906020018083116103ce57829003601f168201915b5050505050905090565b6000610400826108da565b506000908152600460205260409020546001600160a01b031690565b600061042782610677565b9050806001600160a01b0316836001600160a01b0316141561049a5760405162461bcd60e51b815260206004820152602160248201527f4552433732313a20617070726f76616c20746f2063757272656e74206f776e656044820152603960f91b60648201526084015b60405180910390fd5b336001600160a01b03821614806104b657506104b681336102bd565b6105285760405162461bcd60e51b815260206004820152603e60248201527f4552433732313a20617070726f76652063616c6c6572206973206e6f7420746f60448201527f6b656e206f776e6572206e6f7220617070726f76656420666f7220616c6c00006064820152608401610491565b6105328383610939565b505050565b61054133826109a7565b61055d5760405162461bcd60e51b8152600401610491906114fc565b610532838383610a26565b6007546001600160a01b0316331461057f57600080fd5b60095461058d906001611560565b6009819055600090815260086020908152604090912082516105b1928401906110fb565b506105be82600954610bc2565b5050565b6105328383836040518060200160405280600081525061078b565b600860205260009081526040902080546105f6906114c1565b80601f0160208091040260200160405190810160405280929190818152602001828054610622906114c1565b801561066f5780601f106106445761010080835404028352916020019161066f565b820191906000526020600020905b81548152906001019060200180831161065257829003601f168201915b505050505081565b6000818152600260205260408120546001600160a01b03168061035d5760405162461bcd60e51b8152602060048201526018602482015277115490cdcc8c4e881a5b9d985b1a59081d1bdad95b88125160421b6044820152606401610491565b60006001600160a01b0382166107415760405162461bcd60e51b815260206004820152602960248201527f4552433732313a2061646472657373207a65726f206973206e6f7420612076616044820152683634b21037bbb732b960b91b6064820152608401610491565b506001600160a01b031660009081526003602052604090205490565b610765610bdc565b61076f6000610c36565b565b606060018054610372906114c1565b6105be338383610c88565b61079533836109a7565b6107b15760405162461bcd60e51b8152600401610491906114fc565b6107bd84848484610d57565b50505050565b60606107ce826108da565b60006107e560408051602081019091526000815290565b905060008151116108055760405180602001604052806000815250610830565b8061080f84610d8a565b604051602001610820929190611578565b6040516020818303038152906040525b9392505050565b61083f610bdc565b6001600160a01b0381166108a45760405162461bcd60e51b815260206004820152602660248201527f4f776e61626c653a206e6577206f776e657220697320746865207a65726f206160448201526564647265737360d01b6064820152608401610491565b6108ad81610c36565b50565b6108b8610bdc565b600780546001600160a01b0319166001600160a01b0392909216919091179055565b6000818152600260205260409020546001600160a01b03166108ad5760405162461bcd60e51b8152602060048201526018602482015277115490cdcc8c4e881a5b9d985b1a59081d1bdad95b88125160421b6044820152606401610491565b600081815260046020526040902080546001600160a01b0319166001600160a01b038416908117909155819061096e82610677565b6001600160a01b03167f8c5be1e5ebec7d5bd14f71427d1e84f3dd0314c0f7b2291e5b200ac8c7c3b92560405160405180910390a45050565b6000806109b383610677565b9050806001600160a01b0316846001600160a01b031614806109fa57506001600160a01b0380821660009081526005602090815260408083209388168352929052205460ff165b80610a1e5750836001600160a01b0316610a13846103f5565b6001600160a01b0316145b949350505050565b826001600160a01b0316610a3982610677565b6001600160a01b031614610a9d5760405162461bcd60e51b815260206004820152602560248201527f4552433732313a207472616e736665722066726f6d20696e636f72726563742060448201526437bbb732b960d91b6064820152608401610491565b6001600160a01b038216610aff5760405162461bcd60e51b8152602060048201526024808201527f4552433732313a207472616e7366657220746f20746865207a65726f206164646044820152637265737360e01b6064820152608401610491565b610b0a600082610939565b6001600160a01b0383166000908152600360205260408120805460019290610b339084906115a7565b90915550506001600160a01b0382166000908152600360205260408120805460019290610b61908490611560565b909155505060008181526002602052604080822080546001600160a01b0319166001600160a01b0386811691821790925591518493918716917fddf252ad1be2c89b69c2b068fc378daa952ba7f163c4a11628f55a4df523b3ef91a4505050565b6105be828260405180602001604052806000815250610e88565b6006546001600160a01b0316331461076f5760405162461bcd60e51b815260206004820181905260248201527f4f776e61626c653a2063616c6c6572206973206e6f7420746865206f776e65726044820152606401610491565b600680546001600160a01b038381166001600160a01b0319831681179093556040519116919082907f8be0079c531659141344cd1fd0a4f28419497f9722a3daafe3b4186f6b6457e090600090a35050565b816001600160a01b0316836001600160a01b03161415610cea5760405162461bcd60e51b815260206004820152601960248201527f4552433732313a20617070726f766520746f2063616c6c6572000000000000006044820152606401610491565b6001600160a01b03838116600081815260056020908152604080832094871680845294825291829020805460ff191686151590811790915591519182527f17307eab39ab6107e8899845ad3d59bd9653f200f220920489ca2b5937696c31910160405180910390a3505050565b610d62848484610a26565b610d6e84848484610ebb565b6107bd5760405162461bcd60e51b8152600401610491906115be565b606081610dae5750506040805180820190915260018152600360fc1b602082015290565b8160005b8115610dd85780610dc281611610565b9150610dd19050600a83611641565b9150610db2565b60008167ffffffffffffffff811115610df357610df36112cd565b6040519080825280601f01601f191660200182016040528015610e1d576020820181803683370190505b5090505b8415610a1e57610e326001836115a7565b9150610e3f600a86611655565b610e4a906030611560565b60f81b818381518110610e5f57610e5f611669565b60200101906001600160f81b031916908160001a905350610e81600a86611641565b9450610e21565b610e928383610fb9565b610e9f6000848484610ebb565b6105325760405162461bcd60e51b8152600401610491906115be565b60006001600160a01b0384163b15610fae57604051630a85bd0160e11b81526001600160a01b0385169063150b7a0290610eff90339089908890889060040161167f565b6020604051808303816000875af1925050508015610f3a575060408051601f3d908101601f19168201909252610f37918101906116bc565b60015b610f94573d808015610f68576040519150601f19603f3d011682016040523d82523d6000602084013e610f6d565b606091505b508051610f8c5760405162461bcd60e51b8152600401610491906115be565b805181602001fd5b6001600160e01b031916630a85bd0160e11b149050610a1e565b506001949350505050565b6001600160a01b03821661100f5760405162461bcd60e51b815260206004820181905260248201527f4552433732313a206d696e7420746f20746865207a65726f20616464726573736044820152606401610491565b6000818152600260205260409020546001600160a01b0316156110745760405162461bcd60e51b815260206004820152601c60248201527f4552433732313a20746f6b656e20616c7265616479206d696e746564000000006044820152606401610491565b6001600160a01b038216600090815260036020526040812080546001929061109d908490611560565b909155505060008181526002602052604080822080546001600160a01b0319166001600160a01b03861690811790915590518392907fddf252ad1be2c89b69c2b068fc378daa952ba7f163c4a11628f55a4df523b3ef908290a45050565b828054611107906114c1565b90600052602060002090601f016020900481019282611129576000855561116f565b82601f1061114257805160ff191683800117855561116f565b8280016001018555821561116f579182015b8281111561116f578251825591602001919060010190611154565b5061117b92915061117f565b5090565b5b8082111561117b5760008155600101611180565b6001600160e01b0319811681146108ad57600080fd5b6000602082840312156111bc57600080fd5b813561083081611194565b60005b838110156111e25781810151838201526020016111ca565b838111156107bd5750506000910152565b6000815180845261120b8160208601602086016111c7565b601f01601f19169290920160200192915050565b60208152600061083060208301846111f3565b60006020828403121561124457600080fd5b5035919050565b80356001600160a01b038116811461126257600080fd5b919050565b6000806040838503121561127a57600080fd5b6112838361124b565b946020939093013593505050565b6000806000606084860312156112a657600080fd5b6112af8461124b565b92506112bd6020850161124b565b9150604084013590509250925092565b634e487b7160e01b600052604160045260246000fd5b600067ffffffffffffffff808411156112fe576112fe6112cd565b604051601f8501601f19908116603f01168101908282118183101715611326576113266112cd565b8160405280935085815286868601111561133f57600080fd5b858560208301376000602087830101525050509392505050565b6000806040838503121561136c57600080fd5b6113758361124b565b9150602083013567ffffffffffffffff81111561139157600080fd5b8301601f810185136113a257600080fd5b6113b1858235602084016112e3565b9150509250929050565b6000602082840312156113cd57600080fd5b6108308261124b565b600080604083850312156113e957600080fd5b6113f28361124b565b91506020830135801515811461140757600080fd5b809150509250929050565b6000806000806080858703121561142857600080fd5b6114318561124b565b935061143f6020860161124b565b925060408501359150606085013567ffffffffffffffff81111561146257600080fd5b8501601f8101871361147357600080fd5b611482878235602084016112e3565b91505092959194509250565b600080604083850312156114a157600080fd5b6114aa8361124b565b91506114b86020840161124b565b90509250929050565b600181811c908216806114d557607f821691505b602082108114156114f657634e487b7160e01b600052602260045260246000fd5b50919050565b6020808252602e908201527f4552433732313a2063616c6c6572206973206e6f7420746f6b656e206f776e6560408201526d1c881b9bdc88185c1c1c9bdd995960921b606082015260800190565b634e487b7160e01b600052601160045260246000fd5b600082198211156115735761157361154a565b500190565b6000835161158a8184602088016111c7565b83519083019061159e8183602088016111c7565b01949350505050565b6000828210156115b9576115b961154a565b500390565b60208082526032908201527f4552433732313a207472616e7366657220746f206e6f6e20455243373231526560408201527131b2b4bb32b91034b6b83632b6b2b73a32b960711b606082015260800190565b60006000198214156116245761162461154a565b5060010190565b634e487b7160e01b600052601260045260246000fd5b6000826116505761165061162b565b500490565b6000826116645761166461162b565b500690565b634e487b7160e01b600052603260045260246000fd5b6001600160a01b03858116825284166020820152604081018390526080606082018190526000906116b2908301846111f3565b9695505050505050565b6000602082840312156116ce57600080fd5b81516108308161119456fea26469706673582212207bd419feb2a3a4c0243e30ec0084514a6da2e316e81a5870e551ee1da34d9d5e64736f6c634300080a0033",
    "sourcePath": "/Users/tymurpolishchuk/Documents/Work/CryptoBuggy/contracts/NFT.sol",
    "compiler": {
        "name": "solc",
        "version": "0.8.10+commit.fc410830"
    },
    "functionHashes": {
        "approve(address,uint256)": "095ea7b3",
        "balanceOf(address)": "70a08231",
        "getApproved(uint256)": "081812fc",
        "isApprovedForAll(address,address)": "e985e9c5",
        "mintToken(address,string)": "3d02d0c9",
        "minter()": "07546172",
        "name()": "06fdde03",
        "owner()": "8da5cb5b",
        "ownerOf(uint256)": "6352211e",
        "ownershipRecord(uint256)": "5c6caf76",
        "renounceOwnership()": "715018a6",
        "safeTransferFrom(address,address,uint256)": "42842e0e",
        "safeTransferFrom(address,address,uint256,bytes)": "b88d4fde",
        "setApprovalForAll(address,bool)": "a22cb465",
        "setMinter(address)": "fca3b5aa",
        "supportsInterface(bytes4)": "01ffc9a7",
        "symbol()": "95d89b41",
        "tokenId()": "17d70f7c",
        "tokenURI(uint256)": "c87b56dd",
        "transferFrom(address,address,uint256)": "23b872dd",
        "transferOwnership(address)": "f2fde38b"
    },
    "gasEstimates": {
        "creation": {
            "codeDepositCost": "1180600",
            "executionCost": "infinite",
            "totalCost": "infinite"
        },
        "external": {
            "approve(address,uint256)": "infinite",
            "balanceOf(address)": "2634",
            "getApproved(uint256)": "4814",
            "isApprovedForAll(address,address)": "infinite",
            "mintToken(address,string)": "infinite",
            "minter()": "2405",
            "name()": "infinite",
            "owner()": "2420",
            "ownerOf(uint256)": "2561",
            "ownershipRecord(uint256)": "infinite",
            "renounceOwnership()": "infinite",
            "safeTransferFrom(address,address,uint256)": "infinite",
            "safeTransferFrom(address,address,uint256,bytes)": "infinite",
            "setApprovalForAll(address,bool)": "26708",
            "setMinter(address)": "26867",
            "supportsInterface(bytes4)": "534",
            "symbol()": "infinite",
            "tokenId()": "2318",
            "tokenURI(uint256)": "infinite",
            "transferFrom(address,address,uint256)": "infinite",
            "transferOwnership(address)": "28446"
        }
    }
}