{
    "_format": "hh-sol-artifact-1",
    "contractName": "NFT",
    "sourceName": "contracts/NFT.sol",
    "abi": [
        {
            "inputs": [
                {
                    "internalType": "string",
                    "name": "name",
                    "type": "string"
                },
                {
                    "internalType": "string",
                    "name": "symbol",
                    "type": "string"
                }
            ],
            "stateMutability": "nonpayable",
            "type": "constructor"
        },
        {
            "anonymous": false,
            "inputs": [
                {
                    "indexed": true,
                    "internalType": "address",
                    "name": "owner",
                    "type": "address"
                },
                {
                    "indexed": true,
                    "internalType": "address",
                    "name": "approved",
                    "type": "address"
                },
                {
                    "indexed": true,
                    "internalType": "uint256",
                    "name": "tokenId",
                    "type": "uint256"
                }
            ],
            "name": "Approval",
            "type": "event"
        },
        {
            "anonymous": false,
            "inputs": [
                {
                    "indexed": true,
                    "internalType": "address",
                    "name": "owner",
                    "type": "address"
                },
                {
                    "indexed": true,
                    "internalType": "address",
                    "name": "operator",
                    "type": "address"
                },
                {
                    "indexed": false,
                    "internalType": "bool",
                    "name": "approved",
                    "type": "bool"
                }
            ],
            "name": "ApprovalForAll",
            "type": "event"
        },
        {
            "anonymous": false,
            "inputs": [
                {
                    "indexed": true,
                    "internalType": "address",
                    "name": "previousOwner",
                    "type": "address"
                },
                {
                    "indexed": true,
                    "internalType": "address",
                    "name": "newOwner",
                    "type": "address"
                }
            ],
            "name": "OwnershipTransferred",
            "type": "event"
        },
        {
            "anonymous": false,
            "inputs": [
                {
                    "indexed": true,
                    "internalType": "address",
                    "name": "from",
                    "type": "address"
                },
                {
                    "indexed": true,
                    "internalType": "address",
                    "name": "to",
                    "type": "address"
                },
                {
                    "indexed": true,
                    "internalType": "uint256",
                    "name": "tokenId",
                    "type": "uint256"
                }
            ],
            "name": "Transfer",
            "type": "event"
        },
        {
            "inputs": [
                {
                    "internalType": "address",
                    "name": "to",
                    "type": "address"
                },
                {
                    "internalType": "uint256",
                    "name": "tokenId",
                    "type": "uint256"
                }
            ],
            "name": "approve",
            "outputs": [],
            "stateMutability": "nonpayable",
            "type": "function"
        },
        {
            "inputs": [
                {
                    "internalType": "address",
                    "name": "owner",
                    "type": "address"
                }
            ],
            "name": "balanceOf",
            "outputs": [
                {
                    "internalType": "uint256",
                    "name": "",
                    "type": "uint256"
                }
            ],
            "stateMutability": "view",
            "type": "function"
        },
        {
            "inputs": [
                {
                    "internalType": "uint256",
                    "name": "tokenId",
                    "type": "uint256"
                }
            ],
            "name": "getApproved",
            "outputs": [
                {
                    "internalType": "address",
                    "name": "",
                    "type": "address"
                }
            ],
            "stateMutability": "view",
            "type": "function"
        },
        {
            "inputs": [
                {
                    "internalType": "address",
                    "name": "owner",
                    "type": "address"
                },
                {
                    "internalType": "address",
                    "name": "operator",
                    "type": "address"
                }
            ],
            "name": "isApprovedForAll",
            "outputs": [
                {
                    "internalType": "bool",
                    "name": "",
                    "type": "bool"
                }
            ],
            "stateMutability": "view",
            "type": "function"
        },
        {
            "inputs": [
                {
                    "internalType": "address",
                    "name": "sponsor",
                    "type": "address"
                },
                {
                    "internalType": "string",
                    "name": "signature",
                    "type": "string"
                }
            ],
            "name": "mintToken",
            "outputs": [],
            "stateMutability": "nonpayable",
            "type": "function"
        },
        {
            "inputs": [],
            "name": "minter",
            "outputs": [
                {
                    "internalType": "address",
                    "name": "",
                    "type": "address"
                }
            ],
            "stateMutability": "view",
            "type": "function"
        },
        {
            "inputs": [],
            "name": "name",
            "outputs": [
                {
                    "internalType": "string",
                    "name": "",
                    "type": "string"
                }
            ],
            "stateMutability": "view",
            "type": "function"
        },
        {
            "inputs": [],
            "name": "owner",
            "outputs": [
                {
                    "internalType": "address",
                    "name": "",
                    "type": "address"
                }
            ],
            "stateMutability": "view",
            "type": "function"
        },
        {
            "inputs": [
                {
                    "internalType": "uint256",
                    "name": "tokenId",
                    "type": "uint256"
                }
            ],
            "name": "ownerOf",
            "outputs": [
                {
                    "internalType": "address",
                    "name": "",
                    "type": "address"
                }
            ],
            "stateMutability": "view",
            "type": "function"
        },
        {
            "inputs": [
                {
                    "internalType": "uint256",
                    "name": "",
                    "type": "uint256"
                }
            ],
            "name": "ownershipRecord",
            "outputs": [
                {
                    "internalType": "string",
                    "name": "tokenURI",
                    "type": "string"
                },
                {
                    "internalType": "string",
                    "name": "signature",
                    "type": "string"
                }
            ],
            "stateMutability": "view",
            "type": "function"
        },
        {
            "inputs": [],
            "name": "renounceOwnership",
            "outputs": [],
            "stateMutability": "nonpayable",
            "type": "function"
        },
        {
            "inputs": [
                {
                    "internalType": "address",
                    "name": "from",
                    "type": "address"
                },
                {
                    "internalType": "address",
                    "name": "to",
                    "type": "address"
                },
                {
                    "internalType": "uint256",
                    "name": "tokenId",
                    "type": "uint256"
                }
            ],
            "name": "safeTransferFrom",
            "outputs": [],
            "stateMutability": "nonpayable",
            "type": "function"
        },
        {
            "inputs": [
                {
                    "internalType": "address",
                    "name": "from",
                    "type": "address"
                },
                {
                    "internalType": "address",
                    "name": "to",
                    "type": "address"
                },
                {
                    "internalType": "uint256",
                    "name": "tokenId",
                    "type": "uint256"
                },
                {
                    "internalType": "bytes",
                    "name": "data",
                    "type": "bytes"
                }
            ],
            "name": "safeTransferFrom",
            "outputs": [],
            "stateMutability": "nonpayable",
            "type": "function"
        },
        {
            "inputs": [
                {
                    "internalType": "address",
                    "name": "operator",
                    "type": "address"
                },
                {
                    "internalType": "bool",
                    "name": "approved",
                    "type": "bool"
                }
            ],
            "name": "setApprovalForAll",
            "outputs": [],
            "stateMutability": "nonpayable",
            "type": "function"
        },
        {
            "inputs": [
                {
                    "internalType": "uint256",
                    "name": "_id",
                    "type": "uint256"
                },
                {
                    "internalType": "string",
                    "name": "_nftURI",
                    "type": "string"
                }
            ],
            "name": "setImage",
            "outputs": [],
            "stateMutability": "nonpayable",
            "type": "function"
        },
        {
            "inputs": [
                {
                    "internalType": "address",
                    "name": "_minter",
                    "type": "address"
                }
            ],
            "name": "setMinter",
            "outputs": [],
            "stateMutability": "nonpayable",
            "type": "function"
        },
        {
            "inputs": [
                {
                    "internalType": "bytes4",
                    "name": "interfaceId",
                    "type": "bytes4"
                }
            ],
            "name": "supportsInterface",
            "outputs": [
                {
                    "internalType": "bool",
                    "name": "",
                    "type": "bool"
                }
            ],
            "stateMutability": "view",
            "type": "function"
        },
        {
            "inputs": [],
            "name": "symbol",
            "outputs": [
                {
                    "internalType": "string",
                    "name": "",
                    "type": "string"
                }
            ],
            "stateMutability": "view",
            "type": "function"
        },
        {
            "inputs": [],
            "name": "tokenId",
            "outputs": [
                {
                    "internalType": "uint256",
                    "name": "",
                    "type": "uint256"
                }
            ],
            "stateMutability": "view",
            "type": "function"
        },
        {
            "inputs": [
                {
                    "internalType": "uint256",
                    "name": "tokenId",
                    "type": "uint256"
                }
            ],
            "name": "tokenURI",
            "outputs": [
                {
                    "internalType": "string",
                    "name": "",
                    "type": "string"
                }
            ],
            "stateMutability": "view",
            "type": "function"
        },
        {
            "inputs": [
                {
                    "internalType": "address",
                    "name": "from",
                    "type": "address"
                },
                {
                    "internalType": "address",
                    "name": "to",
                    "type": "address"
                },
                {
                    "internalType": "uint256",
                    "name": "tokenId",
                    "type": "uint256"
                }
            ],
            "name": "transferFrom",
            "outputs": [],
            "stateMutability": "nonpayable",
            "type": "function"
        },
        {
            "inputs": [
                {
                    "internalType": "address",
                    "name": "newOwner",
                    "type": "address"
                }
            ],
            "name": "transferOwnership",
            "outputs": [],
            "stateMutability": "nonpayable",
            "type": "function"
        }
    ],
    "bytecode": "0x60806040523480156200001157600080fd5b5060405162001bbf38038062001bbf833981016040819052620000349162000251565b8151829082906200004d906000906020850190620000de565b50805162000063906001906020840190620000de565b505050620000806200007a6200008860201b60201c565b6200008c565b5050620002f8565b3390565b600680546001600160a01b038381166001600160a01b0319831681179093556040519116919082907f8be0079c531659141344cd1fd0a4f28419497f9722a3daafe3b4186f6b6457e090600090a35050565b828054620000ec90620002bb565b90600052602060002090601f0160209004810192826200011057600085556200015b565b82601f106200012b57805160ff19168380011785556200015b565b828001600101855582156200015b579182015b828111156200015b5782518255916020019190600101906200013e565b50620001699291506200016d565b5090565b5b808211156200016957600081556001016200016e565b634e487b7160e01b600052604160045260246000fd5b600082601f830112620001ac57600080fd5b81516001600160401b0380821115620001c957620001c962000184565b604051601f8301601f19908116603f01168101908282118183101715620001f457620001f462000184565b816040528381526020925086838588010111156200021157600080fd5b600091505b8382101562000235578582018301518183018401529082019062000216565b83821115620002475760008385830101525b9695505050505050565b600080604083850312156200026557600080fd5b82516001600160401b03808211156200027d57600080fd5b6200028b868387016200019a565b93506020850151915080821115620002a257600080fd5b50620002b1858286016200019a565b9150509250929050565b600181811c90821680620002d057607f821691505b60208210811415620002f257634e487b7160e01b600052602260045260246000fd5b50919050565b6118b780620003086000396000f3fe608060405234801561001057600080fd5b50600436106101425760003560e01c806370a08231116100b8578063b88d4fde1161007c578063b88d4fde146102a2578063c87b56dd146102b5578063c980c626146102c8578063e985e9c5146102db578063f2fde38b14610317578063fca3b5aa1461032a57600080fd5b806370a082311461025b578063715018a61461026e5780638da5cb5b1461027657806395d89b4114610287578063a22cb4651461028f57600080fd5b806317d70f7c1161010a57806317d70f7c146101d757806323b872dd146101ee5780633d02d0c91461020157806342842e0e146102145780635c6caf76146102275780636352211e1461024857600080fd5b806301ffc9a71461014757806306fdde031461016f5780630754617214610184578063081812fc146101af578063095ea7b3146101c2575b600080fd5b61015a6101553660046112e7565b61033d565b60405190151581526020015b60405180910390f35b61017761038f565b604051610166919061135c565b600754610197906001600160a01b031681565b6040516001600160a01b039091168152602001610166565b6101976101bd36600461136f565b610421565b6101d56101d03660046113a4565b610448565b005b6101e060085481565b604051908152602001610166565b6101d56101fc3660046113ce565b610563565b6101d561020f3660046114b6565b610594565b6101d56102223660046113ce565b610637565b61023a61023536600461136f565b610652565b604051610166929190611504565b61019761025636600461136f565b61077e565b6101e0610269366004611532565b6107de565b6101d5610864565b6006546001600160a01b0316610197565b610177610878565b6101d561029d36600461154d565b610887565b6101d56102b0366004611589565b610892565b6101776102c336600461136f565b6108ca565b6101d56102d6366004611605565b61093e565b61015a6102e9366004611636565b6001600160a01b03918216600090815260056020908152604080832093909416825291909152205460ff1690565b6101d5610325366004611532565b610965565b6101d5610338366004611532565b6109de565b60006001600160e01b031982166380ac58cd60e01b148061036e57506001600160e01b03198216635b5e139f60e01b145b8061038957506301ffc9a760e01b6001600160e01b03198316145b92915050565b60606000805461039e90611669565b80601f01602080910402602001604051908101604052809291908181526020018280546103ca90611669565b80156104175780601f106103ec57610100808354040283529160200191610417565b820191906000526020600020905b8154815290600101906020018083116103fa57829003601f168201915b5050505050905090565b600061042c82610a08565b506000908152600460205260409020546001600160a01b031690565b60006104538261077e565b9050806001600160a01b0316836001600160a01b031614156104c65760405162461bcd60e51b815260206004820152602160248201527f4552433732313a20617070726f76616c20746f2063757272656e74206f776e656044820152603960f91b60648201526084015b60405180910390fd5b336001600160a01b03821614806104e257506104e281336102e9565b6105545760405162461bcd60e51b815260206004820152603e60248201527f4552433732313a20617070726f76652063616c6c6572206973206e6f7420746f60448201527f6b656e206f776e6572206e6f7220617070726f76656420666f7220616c6c000060648201526084016104bd565b61055e8383610a67565b505050565b61056d3382610ad5565b6105895760405162461bcd60e51b81526004016104bd906116a4565b61055e838383610b54565b6007546001600160a01b031633146105ee5760405162461bcd60e51b815260206004820152601860248201527f4f6e6c79206d696e7465722063616e206d696e74204e4654000000000000000060448201526064016104bd565b6008546105fc906001611708565b60088190556000908152600960209081526040909120825161062692600190920191840190611238565b5061063382600854610cf0565b5050565b61055e83838360405180602001604052806000815250610892565b60096020526000908152604090208054819061066d90611669565b80601f016020809104026020016040519081016040528092919081815260200182805461069990611669565b80156106e65780601f106106bb576101008083540402835291602001916106e6565b820191906000526020600020905b8154815290600101906020018083116106c957829003601f168201915b5050505050908060010180546106fb90611669565b80601f016020809104026020016040519081016040528092919081815260200182805461072790611669565b80156107745780601f1061074957610100808354040283529160200191610774565b820191906000526020600020905b81548152906001019060200180831161075757829003601f168201915b5050505050905082565b6000818152600260205260408120546001600160a01b0316806103895760405162461bcd60e51b8152602060048201526018602482015277115490cdcc8c4e881a5b9d985b1a59081d1bdad95b88125160421b60448201526064016104bd565b60006001600160a01b0382166108485760405162461bcd60e51b815260206004820152602960248201527f4552433732313a2061646472657373207a65726f206973206e6f7420612076616044820152683634b21037bbb732b960b91b60648201526084016104bd565b506001600160a01b031660009081526003602052604090205490565b61086c610d0a565b6108766000610d64565b565b60606001805461039e90611669565b610633338383610db6565b61089c3383610ad5565b6108b85760405162461bcd60e51b81526004016104bd906116a4565b6108c484848484610e85565b50505050565b60606108d582610a08565b60006108ec60408051602081019091526000815290565b9050600081511161090c5760405180602001604052806000815250610937565b8061091684610eb8565b604051602001610927929190611720565b6040516020818303038152906040525b9392505050565b610946610d0a565b6000828152600960209081526040909120825161055e92840190611238565b61096d610d0a565b6001600160a01b0381166109d25760405162461bcd60e51b815260206004820152602660248201527f4f776e61626c653a206e6577206f776e657220697320746865207a65726f206160448201526564647265737360d01b60648201526084016104bd565b6109db81610d64565b50565b6109e6610d0a565b600780546001600160a01b0319166001600160a01b0392909216919091179055565b6000818152600260205260409020546001600160a01b03166109db5760405162461bcd60e51b8152602060048201526018602482015277115490cdcc8c4e881a5b9d985b1a59081d1bdad95b88125160421b60448201526064016104bd565b600081815260046020526040902080546001600160a01b0319166001600160a01b0384169081179091558190610a9c8261077e565b6001600160a01b03167f8c5be1e5ebec7d5bd14f71427d1e84f3dd0314c0f7b2291e5b200ac8c7c3b92560405160405180910390a45050565b600080610ae18361077e565b9050806001600160a01b0316846001600160a01b03161480610b2857506001600160a01b0380821660009081526005602090815260408083209388168352929052205460ff165b80610b4c5750836001600160a01b0316610b4184610421565b6001600160a01b0316145b949350505050565b826001600160a01b0316610b678261077e565b6001600160a01b031614610bcb5760405162461bcd60e51b815260206004820152602560248201527f4552433732313a207472616e736665722066726f6d20696e636f72726563742060448201526437bbb732b960d91b60648201526084016104bd565b6001600160a01b038216610c2d5760405162461bcd60e51b8152602060048201526024808201527f4552433732313a207472616e7366657220746f20746865207a65726f206164646044820152637265737360e01b60648201526084016104bd565b610c38600082610a67565b6001600160a01b0383166000908152600360205260408120805460019290610c6190849061174f565b90915550506001600160a01b0382166000908152600360205260408120805460019290610c8f908490611708565b909155505060008181526002602052604080822080546001600160a01b0319166001600160a01b0386811691821790925591518493918716917fddf252ad1be2c89b69c2b068fc378daa952ba7f163c4a11628f55a4df523b3ef91a4505050565b610633828260405180602001604052806000815250610fb6565b6006546001600160a01b031633146108765760405162461bcd60e51b815260206004820181905260248201527f4f776e61626c653a2063616c6c6572206973206e6f7420746865206f776e657260448201526064016104bd565b600680546001600160a01b038381166001600160a01b0319831681179093556040519116919082907f8be0079c531659141344cd1fd0a4f28419497f9722a3daafe3b4186f6b6457e090600090a35050565b816001600160a01b0316836001600160a01b03161415610e185760405162461bcd60e51b815260206004820152601960248201527f4552433732313a20617070726f766520746f2063616c6c65720000000000000060448201526064016104bd565b6001600160a01b03838116600081815260056020908152604080832094871680845294825291829020805460ff191686151590811790915591519182527f17307eab39ab6107e8899845ad3d59bd9653f200f220920489ca2b5937696c31910160405180910390a3505050565b610e90848484610b54565b610e9c84848484610fe9565b6108c45760405162461bcd60e51b81526004016104bd90611766565b606081610edc5750506040805180820190915260018152600360fc1b602082015290565b8160005b8115610f065780610ef0816117b8565b9150610eff9050600a836117e9565b9150610ee0565b60008167ffffffffffffffff811115610f2157610f2161140a565b6040519080825280601f01601f191660200182016040528015610f4b576020820181803683370190505b5090505b8415610b4c57610f6060018361174f565b9150610f6d600a866117fd565b610f78906030611708565b60f81b818381518110610f8d57610f8d611811565b60200101906001600160f81b031916908160001a905350610faf600a866117e9565b9450610f4f565b610fc083836110f6565b610fcd6000848484610fe9565b61055e5760405162461bcd60e51b81526004016104bd90611766565b60006001600160a01b0384163b156110eb57604051630a85bd0160e11b81526001600160a01b0385169063150b7a029061102d903390899088908890600401611827565b602060405180830381600087803b15801561104757600080fd5b505af1925050508015611077575060408051601f3d908101601f1916820190925261107491810190611864565b60015b6110d1573d8080156110a5576040519150601f19603f3d011682016040523d82523d6000602084013e6110aa565b606091505b5080516110c95760405162461bcd60e51b81526004016104bd90611766565b805181602001fd5b6001600160e01b031916630a85bd0160e11b149050610b4c565b506001949350505050565b6001600160a01b03821661114c5760405162461bcd60e51b815260206004820181905260248201527f4552433732313a206d696e7420746f20746865207a65726f206164647265737360448201526064016104bd565b6000818152600260205260409020546001600160a01b0316156111b15760405162461bcd60e51b815260206004820152601c60248201527f4552433732313a20746f6b656e20616c7265616479206d696e7465640000000060448201526064016104bd565b6001600160a01b03821660009081526003602052604081208054600192906111da908490611708565b909155505060008181526002602052604080822080546001600160a01b0319166001600160a01b03861690811790915590518392907fddf252ad1be2c89b69c2b068fc378daa952ba7f163c4a11628f55a4df523b3ef908290a45050565b82805461124490611669565b90600052602060002090601f01602090048101928261126657600085556112ac565b82601f1061127f57805160ff19168380011785556112ac565b828001600101855582156112ac579182015b828111156112ac578251825591602001919060010190611291565b506112b89291506112bc565b5090565b5b808211156112b857600081556001016112bd565b6001600160e01b0319811681146109db57600080fd5b6000602082840312156112f957600080fd5b8135610937816112d1565b60005b8381101561131f578181015183820152602001611307565b838111156108c45750506000910152565b60008151808452611348816020860160208601611304565b601f01601f19169290920160200192915050565b6020815260006109376020830184611330565b60006020828403121561138157600080fd5b5035919050565b80356001600160a01b038116811461139f57600080fd5b919050565b600080604083850312156113b757600080fd5b6113c083611388565b946020939093013593505050565b6000806000606084860312156113e357600080fd5b6113ec84611388565b92506113fa60208501611388565b9150604084013590509250925092565b634e487b7160e01b600052604160045260246000fd5b600067ffffffffffffffff8084111561143b5761143b61140a565b604051601f8501601f19908116603f011681019082821181831017156114635761146361140a565b8160405280935085815286868601111561147c57600080fd5b858560208301376000602087830101525050509392505050565b600082601f8301126114a757600080fd5b61093783833560208501611420565b600080604083850312156114c957600080fd5b6114d283611388565b9150602083013567ffffffffffffffff8111156114ee57600080fd5b6114fa85828601611496565b9150509250929050565b6040815260006115176040830185611330565b82810360208401526115298185611330565b95945050505050565b60006020828403121561154457600080fd5b61093782611388565b6000806040838503121561156057600080fd5b61156983611388565b91506020830135801515811461157e57600080fd5b809150509250929050565b6000806000806080858703121561159f57600080fd5b6115a885611388565b93506115b660208601611388565b925060408501359150606085013567ffffffffffffffff8111156115d957600080fd5b8501601f810187136115ea57600080fd5b6115f987823560208401611420565b91505092959194509250565b6000806040838503121561161857600080fd5b82359150602083013567ffffffffffffffff8111156114ee57600080fd5b6000806040838503121561164957600080fd5b61165283611388565b915061166060208401611388565b90509250929050565b600181811c9082168061167d57607f821691505b6020821081141561169e57634e487b7160e01b600052602260045260246000fd5b50919050565b6020808252602e908201527f4552433732313a2063616c6c6572206973206e6f7420746f6b656e206f776e6560408201526d1c881b9bdc88185c1c1c9bdd995960921b606082015260800190565b634e487b7160e01b600052601160045260246000fd5b6000821982111561171b5761171b6116f2565b500190565b60008351611732818460208801611304565b835190830190611746818360208801611304565b01949350505050565b600082821015611761576117616116f2565b500390565b60208082526032908201527f4552433732313a207472616e7366657220746f206e6f6e20455243373231526560408201527131b2b4bb32b91034b6b83632b6b2b73a32b960711b606082015260800190565b60006000198214156117cc576117cc6116f2565b5060010190565b634e487b7160e01b600052601260045260246000fd5b6000826117f8576117f86117d3565b500490565b60008261180c5761180c6117d3565b500690565b634e487b7160e01b600052603260045260246000fd5b6001600160a01b038581168252841660208201526040810183905260806060820181905260009061185a90830184611330565b9695505050505050565b60006020828403121561187657600080fd5b8151610937816112d156fea26469706673582212202c5a1895f844d95f0fe9a503b66eec290bacf258be28ac313f6358638712eac164736f6c63430008090033",
    "linkReferences": {},
    "deployedLinkReferences": {}
}